:100000000C946F030C9497030C9497030C94970330
:100010000C9497030C9497030C9497030C949703F8
:100020000C9497030C9497030C94341F0C94A31F07
:100030000C9497030C9497030C9497030C949703D8
:100040000C9497030C9497030C9497030C949703C8
:100050000C9497030C9497030C9497030C94D5215C
:100060000C9497030C9497030C9497030C949703A8
:100070000C9497030C9497030C9497030C94970398
:100080000C9497030C9497030C9497030C94970388
:100090000C9497030C9497030C9497030C94970378
:1000A0000C9497030C9497030C9497036003040239
:1000B0000404010105080700FF06FF06000177039D
:1000C0000D046A200688E1E708210888E1CDB50F14
:1000D00003220A88618D8422796200231088618D51
:1000E00064069B482892196C225100240F886129CC
:1000F0001A4882836064208A4401250C88E1D44434
:1001000024B126928C12260F8861554552AA4822A6
:1001100092092D920027088861CEE5A90128098857
:10012000618EE51A6601290988E10DE69A85012AA2
:100130000D88E14C141D8846897A0C002B0B88E150
:10014000CDA506AA5C1E052C0988E1A7CAC5D20068
:100150002D0988E1870EF634002E0788E167160620
:100160002F0788618FF51C301188611D6432928AD7
:10017000482212D164065100310A88E18DE95A0DF6
:10018000A400320E88611D6442B9CC20931B2C015F
:10019000330E88611D6442A1612494194401340C1A
:1001A00088E11D4532DD0C665100350E88E11C4C9E
:1001B0007203612494194401360F88611D6472032F
:1001C0004D2812CA0CA200370A88E11CEC62EDC26D
:1001D00000381088611D6442994126140965065152
:1001E00000390F88611D6442915066A0CB0CA200BB
:1001F0003A0A88E107E5817914003B0A88E107E5BE
:1002000081B134003C0988618E15D683003D0A888F
:10021000E1870CA6833D143E0988E10D96D5A30025
:100220003F0A88611D6562F56100401088E155450F
:1002300032094524A1C844525A00411088611D6406
:1002400042915064300945424900421088E11C68DF
:1002500042918126140945065200430D88611D64B0
:1002600042915C51661005441088E11C684291502F
:1002700024140945065200450D88E11C4C72835038
:100280002E375802460B88E11C4C728350AE1C4737
:100290000F88611D6442915C6412CA0CA200481070
:1002A00088E10C454291C12414094542490049099D
:1002B00088619DE59A6D014A0B8861CF3509650615
:1002C00051004B0F88E10C45329941285314092500
:1002D000014C0988E1CC753758024D1088E10C4576
:1002E0004C128A4828128A8492004E1088E10C45EC
:1002F000349144A44524230925014F1088611D64CD
:1003000042915024140965065100500E88E11C6882
:1003100042915064A0C9C501511088611D64429189
:100320005024116991194401520E88E11C684291D0
:100330005064A0699404530E88611D648283602414
:1003400094194401540988E11CA8721D03551088B2
:10035000E10C4542915024140965065100560F885E
:10036000E10C45429150249489A4B400571088E1CF
:100370000C4542915024A18898849200580E88E13F
:100380000C652229992A92092501590B88E1CC8410
:1003900012B15C63005A0A88E11CCC3A1B2C015B49
:1003A0000988615DE5DA6D015C0788E10CF6125D94
:1003B0000888E1DD7535055E0988618E25F2C40087
:1003C0005F0888E1673B1808600888E10DE6A9012D
:1003D000610C88E1C70C43834CD1200A620C88E190
:1003E000CCE506A14C9B4116630B88E1C78C3275A6
:1003F00099D016640C88E1CE8506998E0651006569
:100400000D88E1C78C32994128388802660A8861D4
:1004100056C566B96200670D88E1C70C321D0D72C2
:10042000A10D00680B88E1CCE506A14C4F016909DC
:1004300088E18DEBCAB6006A0A88E18EEB6A8A36DB
:10044000006B0D88E1CC654A42AB482813056C0867
:100450008861D575B6056D0F88E1872842899A4471
:100460004DA226510A6E0A88E1870C42997E0A6FD6
:100470000A88E1C78C323DDA02700D88E1870C42B0
:1004800099DE0C423100710C88E1C70C327D34C812
:100490004500720B88E1872436B25C3900730C8802
:1004A000E1C70C32C161669005740A88E18DCD7296
:1004B000855900750B88E18764FA44A48802760B9D
:1004C00088E187647A94888501770F88E187246AB8
:1004D000123589A2442A9105780D88E18764428902
:1004E0005845281305790C88E187647A34C8853625
:1004F000007A0B88E1870C64CD0652007B0B886183
:100500008AE562C15C300B7C0888E1C9F523007D77
:100510000B886109E682B15C2C0D7E0B88E187A80F
:1005200022557A2C007F0688E1E70800000004FFCE
:10053000FF000000000000240027002A002D0030EA
:100540000000000000250028002B002E00310000D4
:100550000000002300260029002C002F00040404C2
:10056000040403040502020202040302020202065A
:100570000606060606040402020204040408020138
:1005800010408040102040804080080204018040DC
:1005900020100201108010204040200000000200C6
:1005A000090F0000030401000C000000000000001F
:1005B000000000000000000000080B000202020022
:1005C00000090400000102020000052400100105DA
:1005D0002401010104240206052406000107058107
:1005E0000310004009040100020A00000007050290
:1005F00002400000070583024000000403090412C2
:10060000010002EF0201404F1B06920001010203AC
:1006100001537061726B46756E00537061726B4668
:10062000756E2050726F204D6963726F000000007C
:1006300000000000002A2B2800000000000000003D
:10064000000000000000000000000000002C9EB42C
:10065000A0A1A2A434A6A7A5AE362D3738271E1F09
:1006600020212223242526B333B62EB7B89F8485B4
:10067000868788898A8B8C8D8E8F909192939495A2
:10068000969798999A9B9C9D2F3130A3AD35040580
:10069000060708090A0B0C0D0E0F10111213141582
:1006A000161718191A1B1C1DAFB1B0B500050109AA
:1006B00006A1018502050719E029E7150025017546
:1006C0000195088102950175088103950675081545
:1006D0000025730507190029738100C01F2211240A
:1006E0001FBECFEFDAE0DEBFCDBF15E0A0E0B1E086
:1006F000ECEDFBE402C005900D92A235B107D9F7ED
:1007000027E0A2E5B5E001C01D92A937B207E1F7E5
:1007100013E0CFE6D3E004C02197FE010E94DF255D
:10072000CE36D107C9F70E9479230C94EC250C949E
:100730000000662329F06A3019F0862F90E00895B2
:100740008FEF9FEF0895AF92BF92CF92DF92EF921B
:10075000FF920F93CF93DF93EC01DA017901942F8D
:100760009770E1E0F0E09F01092E01C0220F0A948A
:10077000EAF7522F6E018AE8C80ED11CF60180817B
:1007800040E0823018F4422F813049F15D01F8EFEA
:10079000AF22E8ADF9AD28813981D90150968C910D
:1007A0008A9D90018B9D300D1124620F731FDF0114
:1007B000A60FB71F01111AC0EA0EFB1E8C91842BE5
:1007C00085278D93AE15BF05C9F7DF91CF910F91A6
:1007D000FF90EF90DF90CF90BF90AF90089550E0E2
:1007E000D5CF440F550FE114F10479F33C91342B2C
:1007F00035273C939F5F9770E1E0EE1AF108911165
:10080000F0CF2CAD3DADA20FB31FF6018081823039
:1008100028F4813009F051E041E0E5CF51E0E3CF29
:1008200080E0089590E080E00895833018F480938C
:100830006D07089581E0FBCFCF93DF93FC018181A9
:1008400090912E06482F490F5527551F48305105C6
:100850009CF5A281B381109709F52AE236E0338333
:100860002283208120932C0680932D0680912F06D1
:10087000820F808320913006A22FB09131068A2FFB
:10088000821B8917E8F481813D91C82FD0E0C35FB6
:10089000DE4F38838F5F8183F2CFD90118962D9177
:1008A0003C91199721153105C1F72AE236E01996D6
:1008B0003C932E931897D5CF80E0DF91CF91089588
:1008C00081E0FBCF9B01DC011896ED91FC9141E0AA
:1008D00067E10994FC018091D705882311F13FB7A6
:1008E000F89482E08093E9002091F200822F90E05A
:1008F0001816190614F481E090E0882339F028983E
:1009000044E64093D6054091F1004083222339F01C
:100910002091F200211103C02BE62093E8003FBF95
:1009200008958FEF9FEF0895CF93DF931F92CDB778
:10093000DEB76983DC01ED91FC910280F381E02D4B
:1009400041E050E0BE016F5F7F4F09950F90DF914E
:10095000CF91089583E08093E9008091F20088238D
:1009600019F08AE38093E8000895CF93DF931F92F4
:10097000CDB7DEB7FC018485958597FD08C02FEFC4
:100980003FEF358724870F90DF91CF910895CE01F7
:1009900001960E946A04019719F4898190E0F3CFCF
:1009A0008FEF9FEFF0CF0F931F93CF93DF931F92A3
:1009B000CDB7DEB78C01FC018485958597FF0BC010
:1009C000CE0101960E946A04019771F4898190E03A
:1009D000F80195878487F801848595850F90DF91CC
:1009E000CF911F910F9108958FEF9FEFF1CFFC01F1
:1009F0008485958597FD0BC09FB7F89482E080931E
:100A0000E9008091F2009FBF90E0019608959FB7A2
:100A1000F89482E08093E9008091F2009FBF90E01B
:100A2000089540919D0550919E0520919B05309120
:100A30009C0542175307B4F49091E8009570E1F3D8
:100A40009091E80092FD19C08093F10080919D057E
:100A500090919E0501968F739927892B19F48EEF3B
:100A60008093E80080919D0590919E05019690935A
:100A70009E0580939D0581E0089580E00895EF92A2
:100A8000FF920F931F93CF93DF93F82E192FE62E2B
:100A9000042F81E0860F880F0E94110583E00E94D9
:100AA0001105CF2DD12FEC0EFD2EF11CCE15DF053B
:100AB000B9F007FF13C0FE0184910E941105182FA1
:100AC00080E00E941105812321968111EFCFDF91F3
:100AD000CF911F910F91FF90EF9008958881EDCFF6
:100AE00081E0F5CFDF92EF92FF920F931F93CF93A8
:100AF000DF93D82E8A01EB017B01E40EF51ECE15A3
:100B0000DF0559F0D7FE12C0FE0184910E94110545
:100B100021968111F4CF0FEF1FEFC801DF91CF9124
:100B20001F910F91FF90EF90DF9008958881EECF95
:100B30002FB7F89487708093E9009091E800892F8F
:100B4000807295FF04C09091F20080E4891B2FBF52
:100B5000089583E00E94980590E00895615030F078
:100B60002091F100FC0120830196F8CF289884E6BB
:100B70008093D60508958091930581110DC082E080
:100B800080938F0584E080939005109292051092D7
:100B9000910581E0809393058FE895E008950F9388
:100BA0001F93CF93DF931F92CDB7DEB782E0898387
:100BB00042E450E069EB75E080E80E9472050E9413
:100BC000BB05DC0112960D911C910115110589F0F0
:100BD000D801ED91FC910280F381E02DBE016F5FA1
:100BE0007F4FC801099597FD04C0F8010085118564
:100BF000ECCF89810F90DF91CF911F910F910895D4
:100C000081508F3008F047C0E82FF0E0E65FF94FE1
:100C10000C94DF2527062B0619061F0623064B0614
:100C20004B064B062E06340638063C0642064B069B
:100C30004606809180008F77809380000895809190
:100C400080008F7DF9CF80918000877FF5CF84B5BC
:100C50008F7784BD089584B58F7DFBCF8091900000
:100C60008F77809390000895809190008F7DF9CFC9
:100C700080919000877FF5CF8091C0008F7780931F
:100C8000C00008958091C0008F7DF9CF8091C2008F
:100C9000877F8093C2000895CF93DF93282F30E0A1
:100CA000F901E556FA4F8491F901E458FA4FD491CD
:100CB000F901E35AFA4FC491CC23A1F081110E94AB
:100CC0000006EC2FF0E0EE0FFF1FE15BFA4FA5915D
:100CD000B491EC91ED2381E090E009F480E0DF91A4
:100CE000CF91089580E090E0FACF1F93CF93DF93E8
:100CF000282F30E0F901E556FA4F8491F901E458C4
:100D0000FA4FD491F901E35AFA4FC491CC23A9F0D8
:100D1000162F81110E940006EC2FF0E0EE0FFF1F4E
:100D2000EF5BFA4FA591B4918FB7F894EC91111144
:100D300008C0D095DE23DC938FBFDF91CF911F9148
:100D40000895DE2BF8CFCF93DF9390E0FC01E458B9
:100D5000FA4F2491835A9A4FFC0184918823C9F059
:100D600090E0880F991FFC01ED5CFA4FA591B491BA
:100D7000FC01EF5BFA4FC591D49161110DC09FB793
:100D8000F8948C91209582238C9388812823288342
:100D90009FBFDF91CF910895623051F49FB7F894CF
:100DA0003C91822F809583238C93E8812E2BEFCF6B
:100DB0008FB7F894EC912E2B2C938FBFEACFCF9363
:100DC000C82F60E00E94A30661E08C2FCF910C94A5
:100DD0007506CF93C82F60E00E94750661E08C2FE6
:100DE000CF910C94A306AF92BF92CF92DF92EF9275
:100DF000FF920F931F93CF93DF93182F8091750766
:100E00000E944C06892BD1F3809177070E944C06F3
:100E1000892BA1F380917707909178070E94E906CA
:100E2000CBE4D0E0CE010197F1F780917507909166
:100E300076070E94E9068BE990E00197F1F780912F
:100E40007507909176070E94DF062197F1F7D8E0A9
:100E5000C1E02BE4C22ED12C3BE9A32EB12CE12E14
:100E6000F12C8091770790917807012F017010FF86
:100E70006EC00E94DF06C6010197F1F780917507E9
:100E8000909176070E94E906C5010197F1F78091DC
:100E90007507909176070E94DF06C6010197F1F76A
:100EA000802F8C27F594E7941E2DD15009F04DC06A
:100EB00080917707909178070C1709F44BC00E9436
:100EC000DF06CBE4D0E0CE010197F1F78091750702
:100ED000909176070E94E9060BE910E0C80101979E
:100EE000F1F780917507909176070E94DF06CE0199
:100EF0000197F1F780917707909178070E94DF06BC
:100F0000CE010197F1F780917507909176070E94C5
:100F1000E906C8010197F1F780917507909176076E
:100F20000E94DF062197F1F78BE599E00197F1F731
:100F300090E080E0DF91CF911F910F91FF90EF90B3
:100F4000DF90CF90BF90AF900895C82F88CF0E94B8
:100F5000E90691CF0E94E906B4CF3FB7F89480919B
:100F60008B0590918C05A0918D05B0918E0526B5CD
:100F7000A89B05C02F3F19F00196A11DB11D3FBFD1
:100F8000BA2FA92F982F8827BC01CD01620F711DA0
:100F9000811D911D42E0660F771F881F991F4A959A
:100FA000D1F708958F929F92AF92BF92CF92DF9226
:100FB000EF92FF926B017C010E94AD074B015C0137
:100FC000C114D104E104F104B9F00E94AD0768191D
:100FD00079098A099B09683E73408105910580F370
:100FE00021E0C21AD108E108F10888EE880E83E0FA
:100FF000981EA11CB11CE4CFFF90EF90DF90CF9022
:10100000BF90AF909F908F9008957F928F929F9204
:10101000AF92BF92CF92DF92EF92FF920F931F9306
:10102000CF93DF93C82E8B017A018091D705811170
:1010300010C08FEF9FEFDF91CF911F910F91FF9025
:10104000EF90DF90CF90BF90AF909F908F907F9068
:1010500008958091A10580FF05C08091E000826025
:101060008093E000CE2DDF2DD12C8AEFB82E8C2D71
:101070008770982E8C2D8072882E8C2D8074782EFF
:101080009AE3A92E209719F4DD2009F452C08C2D83
:101090000E94980581110AC0BA94BB2051F261E008
:1010A00070E080E090E00E94D207ECCF8C171D0624
:1010B00011F00CF08C2F9FB7F8949092E9002091DA
:1010C000E80025FD02C09FBFDDCF282F30E0C21B06
:1010D000D30B882029F08150A0F01092F100FBCFB3
:1010E000F801C7FC0AC0815050F041914093F100D3
:1010F000FACF44914093F10031968150D0F7020F1E
:10110000131FDD2021F0A092E800D12CDCCF8091CC
:10111000E80085FD07C0A092E800DD24D394209765
:1011200091F2F3CF209779F6772069F2A092E80048
:10113000CACF5D9884E68093A005C7017CCFEF926B
:10114000FF921F93CF93DF931F92CDB7DEB77C0141
:1011500080913B0681112AC011E010932E06109356
:101160002F0684E396E09093310680933006109228
:1011700033061092320683E394E090932B0680931B
:101180002A061092360610923506109238061092F2
:1011900037061093390610933A0681EC8093340693
:1011A0000E94BB050E941C0410933B0682E08983C9
:1011B00041E050E0BE016F5F7F4F80912D060E949D
:1011C000050897FD08C080912D0648E050E0B70162
:1011D00080640E9405080F90DF91CF911F91FF90CE
:1011E000EF900895CF93DF93EC0180910C01882359
:1011F00031F083E00E9405081816190634F081E0EA
:1012000090E09B838A8380E090E0DF91CF91089506
:10121000DC01FB0112962C9112978481958128178D
:10122000190641F491818081813A31F49D7F81E0FA
:10123000913009F080E008958132E1F79B3029F484
:1012400082811F968C9381E008959A3099F782816C
:1012500050968C93F8CFDC01FB0188E4808389E40D
:10126000818384E482831D969C911D979F709F5B70
:1012700093831D968D919C9124E0969587952A9550
:10128000E1F78F708F5B848385E00895EF92FF9282
:101290000F931F93CF93DF93FB012081213871F5CA
:1012A0002381223259F5DC0112964C91248135813B
:1012B0004217130619F5EC010B851C85F12CE12C66
:1012C0000115110589F0F80144815581628173810E
:1012D00080E80E9472058F3F980749F0E80EF91EDA
:1012E000D8010D911C91ECCF81E08F87C701DF9170
:1012F000CF911F910F91FF90EF90089590E080E0C3
:10130000F6CFCF93DF93CDB7DEB769970FB6F894DA
:10131000DEBF0FBECDBFFC01DB018C918F5F8C93D4
:101320009E012D5F3F4F8DE0D9011D928A95E9F70F
:1013300029E0298384E08A8391E09D8383E08E8382
:101340002A8721E22B879C879D879F8722E2288B13
:1013500027E02B8B25E02C8B8E8B20E430E0388F20
:101360002F8B998F82818B8395858685998B8A8B2C
:10137000838180688D8B49E150E0BE016F5F7F4FB4
:1013800080E00E94720569960FB6F894DEBF0FBE2A
:10139000CDBFDF91CF910895E0918405F09185054F
:1013A000808190918305892380830895E09184054D
:1013B000F0918505808190918205892B8083089525
:1013C000E0918005F0918105808190917F058923CE
:1013D000808308950F931F93CF93DF938C01C62FC3
:1013E000642FCC32E8F4CA3208F041C0C83271F13F
:1013F000C93209F442C080E0C034D0F1CF73F801A3
:10140000EC0FF11D868D8F3F91F1C031E0F00E940D
:101410004C0621E0892B09F420E0F801218F27C038
:10142000CD3289F140F384EB8C0F823020F7CF73FB
:10143000C00FD12FD11D8E8D411133C061E00E94AC
:10144000A30660E08E8D0E94750611C0025E1F4FDC
:10145000D0E0F80181918F018F3F31F061E0D03110
:1014600008F062E00E94A306DF5FD63191F781E0C9
:10147000DF91CF911F910F91089570E090E080E08F
:101480000E94D207F4CF85E090E0433010F082E074
:1014900090E0880F991F880F991F05970197F1F722
:1014A000E6CF62E00E94A306E2CFDC011A96ED913E
:1014B000FC9130E020E00994DC01ED91FC91458540
:1014C0006DE20C94550AE0918005F0918105208130
:1014D00030917E05232B20830C945C0ACF93DF93FD
:1014E000EC01662361F00E94D609CE010E945C0ADD
:1014F000CE010E94630ADF91CF910C94E0090E9413
:10150000CC09F3CF1F93CF93DF93EC01162F6078B4
:101510000E946E0A612F6074CE010E946E0A612FD4
:101520006072CE010E946E0A612F6071CE010E942E
:101530006E0A612F6870CE010E946E0A612F64707E
:10154000CE010E946E0A612F6270CE010E946E0A67
:10155000612F6170CE010E946E0A0E94D609CE01F1
:101560000E945C0ACE010E94630A0E94D609CE0145
:101570000E945C0ADF91CF911F910C94E009EF92D9
:10158000FF921F93CF93DF93EC01142F7901683101
:1015900009F443C058F46431D1F0673171F080E050
:1015A000DF91CF911F91FF90EF900895693109F479
:1015B00083C06032A1F781E0F3CF1123E1F3F7019B
:1015C00061917F01CE010E94820A1150F6CF61E045
:1015D0008AA50E94A30661E08AA50E94750661E0C3
:1015E0008BA50E94A30661E08BA50E947506E09181
:1015F0008005F0918105808190917E05892B808303
:10160000E0918405F0918505808190918205892B78
:101610008083CE010E945C0ACECF8AA590E0FC01B7
:10162000E35AFA4FE491F0E0EE0FFF1FEF5BFA4F41
:10163000259134913093810520938005FC01E45875
:10164000FA4FE491E0937E05E095E0937F058BA54A
:1016500090E0FC01E35AFA4FE491F0E0EE0FFF1F37
:10166000EF5BFA4F259134913093850520938405E3
:10167000FC01E458FA4FE491E0938205E095E09391
:1016800083058F89882341F00E94D609CE010E94EC
:101690005C0ACE010E94630A0E94D6090E94CC090E
:1016A000CE010E945C0A0E94E00981E08F8B6E8966
:1016B000CE010E94820A7FCF0E94CC09CE010E94F7
:1016C0005C0ACE010E94630A0E94D609CE010E94E4
:1016D0005C0A1F8A70CFDC011696ED91FC9130E018
:1016E00020E040E069E10994DC011696ED91FC915F
:1016F00030E020E040E068E109949A01DC011696B0
:10170000ED91FC91462F67E10994EF92FF920F93C0
:101710001F93CF93DF931F92CDB7DEB77C018B0170
:10172000D8016C91673129F150F46531A0F40F9024
:10173000DF91CF911F910F91FF90EF9008956A3143
:1017400018F16E3FA1F7F8014181498369E2C701B1
:101750000E94550A0BC0F80141814983D7011696B2
:10176000ED91FC9130E020E0C70109950E5F1F4F1D
:10177000D7CFF80181818983AE014F5F5F4F61E070
:10178000C7010E947D0BF2CF0F5F1F4FD701169646
:10179000ED91FC9130E020E040E0C7010995C0CF19
:1017A000462FDC011696ED91FC9130E020E066E1D9
:1017B0000994462FDC011696ED91FC9130E020E073
:1017C00065E10994EF92FF920F931F93CF93DF93FC
:1017D000EC01042F79016D3009F446C050F46B30F0
:1017E000C9F1693009F49FC06A3009F465C080E02E
:1017F00046C06E3009F452C06F3099F70E94740BE6
:10180000F7011381110F110F110F6C89160F60E48E
:10181000CE010E94D90B612F62956F706061CE017D
:101820000E94D90B612F6F70CE010E94D00BF7017F
:101830006481606BCE010E94D00BF7014081518121
:101840006281660F660F660FCE010E947D0B01500C
:10185000A1F72EC06FEC72E0442311F06AEC72E045
:10186000CE010E94850B0AC0411110C063EC72E0EA
:101870000E94850BE881F98182898C8B81E0DF9160
:10188000CF911F910F91FF90EF9008956CEB72E054
:101890000E94850BE881F9818389EFCF0E94740B48
:1018A00061E8CE010E94D90B602FCE010E94D00BBF
:1018B000CE010E946B0BE2CFEA85FB8530E020E091
:1018C00040E068E2CE010995EE81FF8130E020E042
:1018D00040E064E1CE01099541E06BE4CE010E9455
:1018E000550AE881F981448169E2CE010E94550AD6
:1018F00040E06BE4CE010E94550AE881F981448101
:1019000069E2CE010E94550A41E06BE4CE010E94DB
:10191000550AE881F981458169E2CE010E94550AA4
:1019200064ED72E09DCF89E093E0998388831C8AFF
:10193000A5CFDC011896ED91FC9130E020E040E06D
:1019400069E10994DC011896ED91FC9130E020E00A
:1019500040E068E10994CF93DF931F92CDB7DEB7E3
:101960006983BE016F5F7F4F0E9462040F90DF9119
:10197000CF910895EF92FF921F93CF93DF93EC01E5
:10198000162F7A010E94A20C60E4CE010E94AB0CDB
:10199000E885F9859701412F67E1CE010995CE01D0
:1019A000DF91CF911F91FF90EF900C94990CEF92E3
:1019B000FF921F93CF93DF93EC01142F79016631CF
:1019C00081F138F4643109F44BC0653179F080E07D
:1019D00022C06831C9F150F16931C9F780917D05A4
:1019E000882391F1CE010E94990C2EC080917D0533
:1019F000882319F0CE010E94990CCE010E94A20CFE
:101A000060E0CE010E94AB0C612FCE010E94AB0CB6
:101A100081E080937D05DF91CF911F91FF90EF9042
:101A20000895642F0E94AB0C81E0F5CF80917D0575
:101A3000882319F0CE010E94990CA701193138F4BE
:101A4000612FCE010E94BA0C10927D05EDCF68E1A6
:101A5000CE010E94BA0C185188E1E80EF11CEDCFBE
:101A60008E898F3F11F488E78E8BE885F985970181
:101A7000412F64E1CE01DF91CF911F91FF90EF9054
:101A80000994FC016623D9F16A30C9F1808D811176
:101A900025C06C3F48F085E0808F617070E0738BEB
:101AA000628B2EEF3FEF29C0683F20F084E0808FEB
:101AB0006370F4CF603F20F083E0808F6770EECFDB
:101AC000603E20F082E0808F6F70E8CF262F30E0FC
:101AD000603C98F081E0808F6F71E0CF8150808F03
:101AE0002289338996E0220F331F9A95E1F76F73AD
:101AF000262B338B228B8111D4CFC90108952FEF70
:101B00003FEFFBCF0F93FC01E05CFF4F0190F081B2
:101B1000E02D4E1B5F0BDC01D496ED91FC910995F5
:101B20000F910895CF93DF93FC01A081B18182AD25
:101B300090E09C0143E0220F331F4A95E1F737AF55
:101B400026AF50962C91509748E0249F9001112485
:101B500035AF24AF23AD30E0B90153E0660F771FF6
:101B60005A95E1F7EF01C05CDF4F798368835196A6
:101B70004C915197E901C80FD91F50E04C175D07F0
:101B800018F4CA01821B930BEF01CE5BDF4F798300
:101B90006883229623E0880F991F2A95E1F7860F24
:101BA000971F99838883229654968D919C9155977F
:101BB00099838883E85BFF4F56968D919C91918322
:101BC0008083DF91CF9108950F931F93FC01E25B17
:101BD000FF4F0190F081E02DDC01A05BBF4F0D9025
:101BE000BC91A02D4A175B0740F4E017F10748F0BD
:101BF0000417150730F080E019C0E017F107C0F3B3
:101C0000FACFFC01E65BFF4F40815181845B9F4F1F
:101C1000FC01808191816817790758F481E04217AF
:101C2000530720F081E02617370728F71F910F91FF
:101C3000089542175307B0F3DECF2F923F924F9291
:101C40005F926F927F928F929F92AF92BF92CF924C
:101C5000DF92EF92FF920F931F93CF93DF93CDB755
:101C6000DEB72A970FB6F894DEBF0FBECDBF9A87B6
:101C70008987865B9F4F9A838983FC01118210823A
:101C8000E985FA85EA5BFF4F4080518029853A85D6
:101C9000245B3F4F3C832B83F90151824082E985CD
:101CA000FA85EE5BFF4F2080318029853A85225BE3
:101CB0003F4F3E832D83F90131822082E985FA85E9
:101CC000EC5BFF4F6080718029853A85205B3F4F38
:101CD00038872F83F90171826082E985FA85E85A95
:101CE000FF4FE080F180E985FA85EC5AFF4FA08034
:101CF000B180E985FA85EA5AFF4FC080D180E98535
:101D0000FA85EE5AFF4F8080918087019501A601E8
:101D1000B40189859A850E94E40D29853A852C575E
:101D20003F4F3A87298781111BC0F90110822A96FB
:101D30000FB6F894DEBF0FBECDBFDF91CF911F91DC
:101D40000F91FF90EF90DF90CF90BF90AF909F905A
:101D50008F907F906F905F904F903F902F9008955D
:101D600081E0E985FA8580838114910421F0E9817D
:101D7000FA8191828082A414B50420F4EB81FC8165
:101D8000B182A0822C143D0420F4ED81FE81D18229
:101D9000C082E614F70458F6EF81F885F182E082FC
:101DA000C6CF0F93CF93DF93E02FDC01AC57BF4F2B
:101DB000FC91FF2309F460C02115310509F45CC0D2
:101DC0002230310538F0023009F04AC06F5F7F4F92
:101DD000621B730B0E2F0170E0FD52C0FC01E25B31
:101DE000FF4F0190F081E02D4E175F0708F444C0CB
:101DF000FC01E05BFF4F0190F081E02D4E175F0783
:101E0000D8F5FC01E45BFF4F0190F081E02DDC018F
:101E1000A65BBF4F0D90BC91A02D260F371F261734
:101E2000370738F56E177F0718F59F0121503109E4
:101E3000A217B30708F56A177B0708F4BD012E1730
:101E40003F0708F4F901E61BF70BEC01AEA9BFA9A7
:101E500014960D90BC91A02D9F01FD0109950CC019
:101E6000033009F0B7CF4F5F5F4F421B530BB2CF28
:101E7000BD016E177F07E0F2DF91CF910F910895BA
:101E8000FC01E65BFF4F0190F081E02D6E177F07AC
:101E900098F3FC01E45BFF4F0190F081E02D6E1799
:101EA0007F0750F7FC01E05BFF4F0190F081E02DD0
:101EB000DC01A25BBF4F0D90BC91A02D240F351FFC
:101EC00024173507A8F44E175F0788F49F012150A7
:101ED0003109A217B30780F64A175B0708F4AD0172
:101EE0002E173F0708F4F901E41BF50BAECFAD0147
:101EF0004E175F0708F6EDCF0F9320913107309111
:101F0000320762177307F0F02091330730913407DE
:101F100062177307B8F420912D0730912E078217AE
:101F2000930780F020912F07309130078217930795
:101F300048F4AB01BC0100E021E030E083EE96E024
:101F40000E94D10E0F9108955F926F927F928F92AF
:101F50009F92AF92BF92CF92DF92EF92FF920F9338
:101F60001F93CF93DF93EC017A018C01061B170BB3
:101F70006817790718F08B01081B190B370188E0E7
:101F8000681A71080615170590F16C177D0728F57A
:101F900067017E01EB01512C68E070E048019694E6
:101FA0008794AA24AA94BA2CC616D70618F4AA2491
:101FB000A394B12CEC16FD0628F5DF91CF911F916B
:101FC0000F91FF90EF90DF90CF90BF90AF909F90D8
:101FD0008F907F906F905F9008959E2D8F2D7B0145
:101FE000692F782F512C38E0C32ED12CD7CF902FCA
:101FF000812F8301692E782E6E0155245394C8E0F9
:10200000D0E0CCCFB601CE01552011F0BE01C60103
:102010000E947C0F8618970897FE04C0CA0CDB1C30
:10202000800E911E2196C6CF213069F038F0223003
:1020300079F0840F911D47FD9A950895860F911DA3
:1020400067FD9A950895841B910947FD939508951E
:10205000861B910967FD93950895213069F038F04A
:10206000223079F0861B910967FD93950895840FBE
:10207000911D47FD9A950895860F911D67FD9A95CC
:102080000895841B910947FD939508953F924F92BF
:102090005F926F927F928F929F92AF92BF92CF92F8
:1020A000DF92EF92FF920F931F93CF93DF937C0108
:1020B000162F442EEC01C25ADF4F5E806F806C01F8
:1020C0008AE8C80ED11C78847518312E711608F470
:1020D000372C8C809D800E85202F462D652D8A8182
:1020E0009B810E9414105C01202F462D652DC40198
:1020F0000E942D10AC01442079F08C85F60180837C
:10210000232D30E0B501C7010E94D10E171548F00C
:1021100017196394512CD7CF8B858111F7CF8D85FB
:10212000EDCF150D1E836F82DF91CF911F910F911F
:10213000FF90EF90DF90CF90BF90AF909F908F90E7
:102140007F906F905F904F903F900895DC011A96BA
:102150004C911A97ED91FC911197249130E0042E47
:1021600002C0359527950A94E2F7842F860F8830B0
:1021700068F031961196FC93EE93E49198E0941BED
:1021800001C0EE0F9A95EAF72E2B88501A968C9381
:102190008FEF9FEF01C0880F6A95EAF78095822341
:1021A00008950F931F93CF93DF938C01EC01C25AD4
:1021B000DF4F798368831A86FC01EF58FF4F6081F7
:1021C000CE010E94A6108887F801EE58FF4F60816B
:1021D000CE010E94A6108987F801E657FF4F908133
:1021E0009C8781E0911180E08D87DF91CF911F91D5
:1021F0000F910895CF93C62F0E94A610C15021E0E1
:1022000030E001C0220FCA95EAF7821BCF910895F2
:10221000FC01E60FF11D849190E0982F88273196FC
:10222000E4918E0F911D0895EF92FF920F931F93EB
:10223000CF93DF93FC01E65AFF4F20813181295E65
:102240003F4F6F3F710509F048F561367105D8F0D1
:1022500080589F4FFC0180819181280F391FC9014F
:102260000196FC014491442309F447C0F9014491CB
:102270004617170671F40196DF91CF911F910F91C8
:10228000FF90EF9008956134710548F382589F4F95
:10229000E1CFFC018491280F311DE1CF8B01FC01BE
:1022A000EE57FF4FC081D181C20FD31F7E0160E086
:1022B000C7010E940811C80FD91F62E0C7010E9420
:1022C0000811F4E0EF0EF11C8017910780F3FE0176
:1022D000849190E0982F88273196E4918E2B009777
:1022E00061F00817190719F4CE010396C5CFFE0156
:1022F0003296E491CE0FD11DEACF90E080E0BCCFC2
:10230000CF92DF92FF920F931F93CF93DF931092A0
:1023100049071092FB066C0180ECF82E10E000E0FB
:10232000D0E0C0E0F60161916F01E091E506F09127
:10233000E60683EE96E009958F3F980789F18E3F78
:102340002FEF920779F3BC0183EE96E00E941411FF
:10235000009721F1BC0183EE96E00E94D1106091BC
:10236000560781E497E00E94FA1080936B07609112
:10237000570781E497E00E94FA106091580781E4C2
:1023800097E00E94FA10082F880F110B80ECF812CA
:1023900002C0F0906B07C00FD11FC4CF80E0F3CF15
:1023A00020914907222399F080916B07022E000C9F
:1023B000330B280F311D87FD3A95C20FD31FC01B69
:1023C000D10B1F1424F4CF0DD11DF7FCDA95CE01EB
:1023D000DF91CF911F910F91FF90DF90CF900895E3
:1023E0008F929F92AF92BF92CF92DF92EF92FF9225
:1023F0000F931F93CF93DF93EC017B018A01690157
:10240000FC01E459FF4F8081813009F46FC008F46A
:1024100062C0823009F475C0833009F47DC0FE01CA
:10242000E05AFF4FF182E082329611830083B601B9
:10243000CE010E941411009709F4FFC07E012EE521
:10244000E20EF11CBC01CE010E94D110FE01E9593F
:10245000FF4FB0803C966081C7010E94FA10882E21
:10246000FE01EC58FF4F6081C7010E94FA10082F4F
:10247000FE01EB58FF4F6081C7010E94FA10A82EA1
:10248000F701908419140CF090C016850B0D01957E
:10249000212F402F682D828193810E9414106C019E
:1024A000F70193838283212F402F682D84819581AA
:1024B0000E942D10AC01F70195838483113009F43B
:1024C00084C0A8F1123009F491C0133009F4A4C0FB
:1024D0008C01960136C0FE01E45AFF4F0190F08155
:1024E000E02DCE010995080F191F99CFFE01E45A7E
:1024F000FF4F0190F081E02DCE010995E81AF90A0D
:102500008ECFFE01E45AFF4F0190F081E02DCE0105
:102510000995081B190B83CFFE01E45AFF4F019068
:10252000F081E02DCE010995E80EF91E78CF9601D5
:10253000290D311D97FC3A958C010B0D111DB7FC2F
:102540001A95B601CE010E94E40D882371F1F701BE
:10255000168217828E0101591F4F6E01F0E7CF0ED0
:10256000D11CF8016081C7010E94A610882EF601D7
:102570006081C7010E94A610982E40E0682DCE0110
:102580000E94461041E0692DCE010E94461061E094
:10259000C7010E94A6108111F0CFF70187818B152A
:1025A00004F3C657DF4F848588838A2DAA0C990BC4
:1025B000DF91CF911F910F91FF90EF90DF90CF901F
:1025C000BF90AF909F908F90089581E090E08B191D
:1025D0009109B7FC939596012F5F3F4F8A01090D32
:1025E000111D97FC1A95C80ED91EABCF81E090E063
:1025F000BC016919710997FC739596012F5F3F4FD4
:102600008B199109B7FC93958A010F5F1F4F480FF3
:10261000591FC60ED71E95CF96012B0D311DB7FC45
:102620003A9581E090E08919910997FC93958A0188
:102630000F5F1F4F480F591F84CF90E080E0B8CF45
:10264000CF92DF92EF92FF920F931F93CF93DF937E
:10265000EC018B011092FB067A01D12CC12CF70101
:1026600061917F01E091E506F091E60683EE96E048
:1026700009958F3F980719F18E3F2FEF920779F355
:102680009C01A801BE0183EE96E00E94F01120910A
:102690004F07213059F038F0223059F0233061F0E3
:1026A000C80ED91EDCCFC80FD91FFACF080F191FCB
:1026B000F7CFC81BD90BF4CF081B190BF1CFC601FC
:1026C000DF91CF911F910F91FF90EF90DF90CF900E
:1026D00008952F923F924F925F926F927F928F92C6
:1026E0009F92AF92BF92CF92DF92EF92FF920F93A1
:1026F0001F93CF93DF93CDB7DEB729970FB6F8942A
:10270000DEBF0FBECDBF3C014B015B834A83590145
:102710001801270181E49DE09093E6068093E50689
:10272000C6010E9480117C010196969587958301D0
:10273000081B190B712C612CEA14FB0430F43501D1
:102740006E187F0876946794750181E080934C073A
:1027500081E49DE09093E6068093E506A601B4012E
:10276000C8010E9420139801261937090A811B818C
:10277000077011278091690740916A0760916D0782
:102780006983B901621973097B836A83082E000C7F
:10279000990B9C01240D351DB401621B730B7D83C5
:1027A0006C839C01241B310947FD33953F832E83A5
:1027B0008A809B80801A910A5101A00EB11EAA0C3A
:1027C000BB1CAE0CBF1CE0913F07F091400783EEAD
:1027D00096E009956C817D81860F971F6C01C01A68
:1027E000D10AC201800F911F880F991F2E813F814E
:1027F000820F931F99878887012B09F44BC03401FE
:102800006A0C7B1C8C010C0D1D1D9301A601B401EB
:1028100083EE96E00E94E40D8823B1F100E095017B
:10282000A601B40183EE96E00E94D10E68857985F9
:102830006230710548F162507109798768877FEFCE
:10284000C71AD70A888599850097B1F001E09C01E5
:10285000A601B40183EE96E00E94D10EB30161504F
:10286000710928853985A60183EE96E00E94D10E74
:1028700028853985C20ED31E00E09501A601B4015A
:1028800083EE96E00E94D10E89810E94150410E02B
:1028900000E08ECF29960FB6F894DEBF0FBECDBFF5
:1028A000DF91CF911F910F91FF90EF90DF90CF902C
:1028B000BF90AF909F908F907F906F905F904F9060
:1028C0003F902F900895CF93DF93EC016BAFEEA96B
:1028D000FFA90190F081E02D0995EEA9FFA90280E2
:1028E000F381E02DCE01DF91CF910994AF92BF9299
:1028F000CF92DF92EF92FF920F931F93CF93DF93CC
:1029000000D000D01F92CDB7DEB78C01DC01DA9683
:10291000AC90DA97DB96EC90DB97ED91FC91B18867
:10292000FE2CD12CC12CD801ED91FC9111978089FE
:10293000D8962D913C911C82FD828B83B8E08B9FB1
:10294000C00111248C9DA0018D9D500D9C9D500DAA
:102950001124240F351F3A832983D8011496ED9151
:10296000FC919E012F5F3F4F41E06FE0C801099548
:10297000F3948F2D8E198A1528F4BFEFCB1ADB0A3A
:10298000FB1488F20F900F900F900F900F90DF9133
:10299000CF911F910F91FF90EF90DF90CF90BF905C
:1029A000AF9008951F93CF93DF93EC01162F8E8184
:1029B0009F81019741F0888121E030E03F832E83A1
:1029C00061E00E94A306612F8881DF91CF911F9162
:1029D0000C947506CF92DF92EF92FF920F931F93A4
:1029E000CF93DF936C01EB017B01E40EF51E10E049
:1029F00000E0CE15DF0581F069916D30D1F3D6018D
:102A0000ED91FC910190F081E02DC6010995892B93
:102A100019F00F5F1F4FEDCFC801DF91CF911F91CC
:102A20000F91FF90EF90DF90CF900895DC01683810
:102A3000A0F06858FD0186E0662321F09681961388
:102A400001C01682815031968111F6CFCD010496D6
:102A50000E949F0881E090E00895862F90E067FF34
:102A600013C0FC01E058F10981E090E001C0880F3B
:102A7000EA95EAF7809514969C9114978923149609
:102A80008C93149760E0D6CF1C96ED91FC911D9726
:102A9000E80FF91F64916623E1F0862F807C803C6B
:102AA00069F414968C9114978F7B14968C931497D9
:102AB0006F73623309F0BECF64E6BCCF67FFF9CF16
:102AC00014968C9114978D7F14968C9314976F772E
:102AD000F0CF90E080E00895DC01683888F1685814
:102AE00016968C911697861721F117968C91179749
:102AF0008617F9F018968C9118978617D1F01996C9
:102B00008C9119978617A9F01A968C911A978617A7
:102B100081F01B968C911B97861759F0FD01369614
:102B200090E080E0219121114FC08A0F9B1FFC0192
:102B30006683CD0104960E949F0881E090E008958D
:102B4000862F90E067FF12C0FC01E058F10921E0F8
:102B500030E001C0220FEA95EAF714968C911497A1
:102B6000822B14968C93149760E0BACF1C96ED914B
:102B7000FC911D97E80FF91F6491611109C081E074
:102B800090E013969C938E93129790E080E00895C6
:102B9000862F807C803C69F414968C911497806415
:102BA00014968C9314976F73623309F099CF64E68F
:102BB00097CF67FFF9CF14968C9114978260149683
:102BC0008C9314976F77F0CF01968630910509F0BA
:102BD000A9CFD5CFEF92FF921F93CF93DF93EC0154
:102BE000162F0E946C157C01612FCE010E941615D4
:102BF000C7019927DF91CF911F91FF90EF90089522
:102C0000CF93C82F823741F08B3631F08CE88C0F90
:102C1000823010F0C13119F480EE0E94F30680EF8B
:102C20000E94F3068C2F0E94F30680E0CF91089556
:102C3000CF93C82F823741F08B3631F08CE88C0F60
:102C4000823010F0C13119F480EE0E94F3068C2F0F
:102C50000E94F30680E0CF910895CF92DF92EF9229
:102C6000FF920F931F93CF93DF936C01EB017B01D6
:102C7000E40EF51E10E000E0CE15DF0561F069916D
:102C8000D601ED91FC910190F081E02DC6010995EE
:102C9000080F191FF1CFC801DF91CF911F910F913C
:102CA000FF90EF90DF90CF900895CF92DF92EF9258
:102CB000FF920F931F93CF93DF93EC016C0124E0FD
:102CC000C20ED11CFC01E057FF4F0190F081E02DB6
:102CD000C60109958E3FEFEF9E07D8F48E010C5682
:102CE0001F4FF801408151817E01F2E9EF0EF11C86
:102CF000F701608171819C01C6010E94F011C059E9
:102D0000DF4F28812130C1F078F02230B9F0233034
:102D1000E9F081E090E0DF91CF911F910F91FF905A
:102D2000EF90DF90CF900895F70120813181820FDD
:102D3000931F91838083EDCFF801F7CFF7012081B6
:102D40003181281B390B31832083E3CFF801F7CF82
:102D5000089590E080E00895FC01A081B181509633
:102D60002C9182AD38E0839FC0011124289FA001DF
:102D7000299F500D112470E060E080AD91AD0C945E
:102D8000E5251F93CF93DF93EC010E9476141BADD2
:102D90008AAD180FE881F9818189181768F0EC81F4
:102DA000FD8130E020E040E060E1CE01099580E067
:102DB000DF91CF911F910895FE01E557FF4F80816C
:102DC000882319F0CE010E94AC16612FCE010E941B
:102DD000631481E0EDCFCF93DF93EC01FC01E55765
:102DE000FF4F8081882319F0CE010E94AC1660E06D
:102DF000CE01DF91CF910C9463142F923F924F92AA
:102E00005F926F927F928F929F92AF92BF92CF927A
:102E1000DF92EF92FF920F931F93CF93DF93CDB783
:102E2000DEB7A3970FB6F894DEBF0FBECDBF1091EB
:102E300000011F3F11F48111C5C48AA361E085E040
:102E40000E94A30660E085E00E94750661E083E0D1
:102E50000E94A30661E082E00E94A3062AA122301C
:102E600009F09DC2123009F09EC281E080930001FA
:102E700080910001811103C188E78093F90680E801
:102E80009AE1A6E0B0E08093EF069093F006A0935D
:102E9000F106B093F206E091E706F091E80630E023
:102EA00020E040E06AE083EE96E0099583EE96E04C
:102EB0000E94EB1683EE96E00E94C1168111FACFB4
:102EC00060E083EE96E00E946314E091E706F091E3
:102ED000E80630E020E040E06BE083EE96E0099504
:102EE000E091E706F091E80630E020E044E66EE08D
:102EF00083EE96E00995E091E706F091E80630E070
:102F000020E040E06DE083EE96E0099580913D077A
:102F100090913E078C5A904009F495C0ECEAF0E09D
:102F2000F0933E07E0933D07E491E0935007EDEA0C
:102F3000F0E0E491E0935107EEEAF0E0E491E093F1
:102F40005207EFEAF0E0E491E0935307E0EBF0E0A2
:102F5000E491E0935407E1EBF0E0E491E09355074E
:102F6000E2EBF0E0E491E0935607E3EBF0E0E4916C
:102F7000E0935707E4EBF0E0E491E0935807E5EBCA
:102F8000F0E0E491E0935907E6EBF0E0E491E093A0
:102F90005A07E7EBF0E0E491E0935B07E8EBF0E041
:102FA000E491E0935C07E9EBF0E0E491E0935D07E6
:102FB000EAEBF0E0E491E0935E07EBEBF0E0E49104
:102FC000E0935F07ECEBF0E0E491E093600761E1F0
:102FD0008CEA90E00E940811909362078093610749
:102FE00063E18CEA90E00E9408119093640780935B
:102FF000630765E18CEA90E00E94081190936607F0
:103000008093650780913D0790913E07892BD9F009
:1030100080915D078093690740915E0740936A073E
:1030200090916807992379F0913009F0C0C190918F
:103030005F07891714F490936907809160078417DC
:1030400014F480936A0783EE96E00E94EB1639E54C
:10305000C32E34E0D32EF12CE12C10E000E02EE35F
:1030600030E040E450E060E270E080E490E00E94F4
:10307000691383EE96E00E94C1168111E8CF80911A
:103080000001813009F001C183EE96E00E94EB1649
:103090008091A30527E6C22E24E0D22E811104C020
:1030A00090E7C92E94E0D92EF12CE12C10E000E03D
:1030B00020E830E040E450E066E070E080E490E03A
:1030C0000E9469138091D805823091F48AE7C82E56
:1030D00084E0D82EF12CE12C10E000E02EE330E06B
:1030E00040E450E060E170E081E290E00E9469130A
:1030F0008091D805833091F402E8C02E04E0D02EF0
:10310000F12CE12C10E000E02EE330E040E450E050
:1031100060E170E081E290E00E9469138091D8053F
:10312000863091F41AE8C12E14E0D12EF12CE12C56
:1031300010E000E02EE330E040E450E060E170E0B9
:1031400081E290E00E9469138091D905823091F468
:10315000B2E9CB2EB4E0DB2EF12CE12C10E000E044
:103160002EE330E040E450E060E170E080E690E083
:103170000E9469138091D905833091F4AAE9CA2E7F
:10318000A4E0DA2EF12CE12C10E000E02EE330E098
:1031900040E450E060E170E080E690E00E94691356
:1031A0008091D905863091F4F2EACF2EF4E0DF2E3B
:1031B000F12CE12C10E000E02EE330E040E450E0A0
:1031C00060E170E080E690E00E94691340E450E026
:1031D00060E470E080E490E00E94A40F40E450E0DE
:1031E00070E060E090E080E00E94A40F40E450E0D6
:1031F0006FE770E08FE790E00E94A40F48E050E096
:103200006FE770E090E080E00E94A40F88E1E4E1C5
:10321000F1E0DE01119601900D928A95E1F780911F
:10322000A3058111CEC18091D5058111DBC0EAEAE9
:10323000CE2EE4E0DE2EF12CE12C10E000E024E1C3
:1032400030E040E450E06CE270E080E290E00E9408
:1032500069138091BC0581113CC14AEAC42E44E047
:10326000D42EF12CE12C10E000E024E130E040E429
:1032700050E06CE270E080E690E00E94691383EE1B
:1032800096E00E94C116811103CF80910001823027
:1032900009F08CC28AA18250823008F087C28091E6
:1032A0007C054CEF342E380E85300CF4312C83EE37
:1032B00096E00E94EB16432C512CF2013496FF8FBE
:1032C000EE8F31EBC32E34E0D32EF12CE12C10E045
:1032D00000E02EE330E040E450E068E070E080E49D
:1032E00090E00E946913232C622C712C2E8D3F8D4F
:1032F000261537050CF454C293012419350949E009
:10330000429FC001439F900D1124FC017996FD8FCF
:10331000EC8F34E1239E900111243BA32AA32AE0E1
:10332000822E912CB12CA12C80917C05082E000CB2
:10333000990B50E040E06816790669F480917B05AE
:10334000082E000C990B31E020E08A159B0509F04E
:1033500030E0432F522FF501EE0FFF1F8AA19BA1F2
:10336000E80FF91FE057FE4FC080D1804064EE2483
:10337000E394F12C01E010E022E030E06C8D7D8DD3
:10338000C4010E9469139FEFA91AB90AECE08E0EDE
:10339000911CFAE0AF16B10439F62394A5CF3AA1F7
:1033A000333009F465CD4AA14093000161CD3091DD
:1033B0005A0720915C07082E000C990B622F022EF1
:1033C000000C770B630F711D37FD7A9586179707F1
:1033D0001CF4320F3093690724170CF034CE20937D
:1033E0006A0731CE9E012F5F3F4F2901B12CA12CDE
:1033F0008091D805823081F48A2D853090F0873015
:1034000081F09FEFA91AB90AE2E04E0E511CFCE0D0
:10341000AF16B10469F71DCF833019F437E03A15C0
:1034200080F3F2018081918168E5662E62E0762E5C
:1034300070E9272E71E0372E292F30E03D8F2C8F39
:10344000E82FF0E0FF8FEE8F912C812C8091D50535
:10345000F5012CE0289FE00DF11D1124E552FC4FF1
:103460009081F301E80DF91D808198131EC0F401CD
:10347000EE0FFF1FE20DF31D0190F081E02D808122
:10348000898F81818A8F1B8ECE0149966C01F12C28
:10349000E12C10E000E024E130E040E450E06C8DED
:1034A0007D8D8E8D9F8D0E9469139FEF891A990AD9
:1034B000EAE08E16910451F6FAE06F0E711C24E1D9
:1034C000220E311C8CEB92E08615970509F0BCCFDB
:1034D00098CF9E012F5F3F4F2901B12CA12C8091E5
:1034E000D905823081F48A2D853090F0873081F0C3
:1034F0004FEFA41AB40A82E0480E511C9CE0A916B2
:10350000B10469F7BCCE833019F437E03A1580F383
:10351000F2018081805C918128E5622E22E0722E8A
:1035200030E9232E31E0332E292F30E03D8F2C8FD0
:10353000E82FF0E0FF8FEE8F912C812C8091BC055D
:10354000F5012CE0289FE00DF11D1124E35AFC4FFA
:103550009081F301E80DF91D808198131EC0F401DC
:10356000EE0FFF1FE20DF31D0190F081E02D808131
:10357000898F81818A8F1B8ECE0149966C01F12C37
:10358000E12C10E000E024E130E040E450E06C8DFC
:103590007D8D8E8D9F8D0E9469139FEF891A990AE8
:1035A000EAE08E16910451F6FAE06F0E711C24E1E8
:1035B000220E311C3CEB631632E0730609F0BCCFDF
:1035C00097CFFE013196FD8FEC8F2F01B12CA12CEE
:1035D0008091D805823051F58A2D853060F1873091
:1035E00051F14FEFA41AB40A82E0480E511C9CE03E
:1035F000A916B10469F7B12CA12C8091D9058230AC
:1036000009F071C08A2D853008F473C0873009F441
:1036100070C04FEFA41AB40A8C8D9D8D02969D8FB9
:103620008C8F9CE0A916B10441F729CE833019F4A0
:1036300037E03A15B0F2F20180819181BCE26B2E45
:10364000B1E07B2E10E9212E11E0312E292F30E040
:103650003F8F2E8FE82FF0E0F9A3E8A3912C812C67
:103660008091D505F5012CE0289FE00DF11D112476
:10367000E156FC4F9081F301E80DF91D808198130C
:103680001EC0F401EE0FFF1FE20DF31D0190F0814B
:10369000E02D8081898F81818A8F1B8ECE01499692
:1036A0006C01F12CE12C10E000E024E130E040E47A
:1036B00050E06E8D7F8D88A199A10E9469139FEFC4
:1036C000891A990AEAE08E16910451F6FAE06F0E13
:1036D000711C24E1220E311C30E9631631E07306BF
:1036E00009F0BCCF7ECF833021F4E7E0EA1508F47F
:1036F00090CFEC8DFD8D8081805C91816CE2662E97
:1037000061E0762E70E9472E71E0572E292F30E0C8
:103710003F8F2E8F282E312C912C812C8091BC052F
:10372000F5013CE0389FE00DF11D1124EF5DFC4FE9
:103730009081F301E80DF91D808198131DC0F401FB
:10374000EE0FFF1FE40DF51D0190F081E02D80814B
:10375000898F81818A8F1B8ECE0149966C01F12C55
:10376000E12C10E000E024E130E040E450E06E8D18
:103770007F8DC1010E9469139FEF891A990AEAE0BF
:103780008E16910459F6FAE06F0E711C24E1420E78
:10379000511C30E9631631E0730609F0BDCF39CF13
:1037A00083EE96E00E94C11681118BCD61E085E029
:1037B0000E94A30662E083E00E94A30662E082E02A
:1037C0000E94A306A3960FB6F894DEBF0FBECDBF2E
:1037D000DF91CF911F910F91FF90EF90DF90CF90ED
:1037E000BF90AF909F908F907F906F905F904F9021
:1037F0003F902F900895CF939091A305911129C0E8
:103800009091E30097FF25C0C82F82E090E00E94CE
:10381000C9258630C0F48093D50583E090E00E94EE
:10382000C925863098F48093BC058DE296E090938C
:103830005E0680935D0681E08093A305C11109C0F7
:10384000CF910C94FD161092D505E7CF1092BC05D0
:10385000ECCFCF9108951F93CF93DF93EC01162FF8
:103860000E94C925181739F0612FCE01DF91CF9141
:103870001F910C94D125DF91CF911F9108952F9224
:103880003F924F925F926F927F928F929F92AF92F0
:10389000BF92CF92DF92EF92FF920F931F93CF933D
:1038A000DF93CDB7DEB72D970FB6F894DEBF0FBE0E
:1038B000CDBF6D87942E38872F83FC86EB8616014B
:1038C00090917A05992319F0915090937A054CE0E4
:1038D000849E90011124F501E20FF31FFE83ED8316
:1038E000A101420F531F5C834B83E82EF12CC92C9E
:1038F000D12C5601AE0CBF1C8F8198858E0D9F1D5B
:103900009A87898753E0752E6AE0562E8AA190E047
:10391000880F991FFC01EA58FA4FFA83E98344247F
:1039200043946E2CFD85EF1608F0B2C1E985FA8547
:103930008191FA87E9870E944C0620910001892B2A
:1039400009F0C2C027FD88C0F7E0AF16B10409F046
:1039500042C1F801878181117FC0E981FA818081AC
:1039600091818034FFE19F0760F40196E981FA813B
:10397000918380835FEFE51AF50A8FEFA81AB80AE2
:10398000D0CF2230B9F3F8014782E981FA81118260
:10399000108282E041C0EF81F88583810E944C064D
:1039A000892B09F023C1E6CFE45DFE4FE80FF91F34
:1039B000608181E596E00E946C15DCCF352D2303F4
:1039C000F0011124E80FF11D87FDFA95EE0FFF1F9E
:1039D000E057FE4F408151814656544001F59230E8
:1039E000F0F49FEF980F9A3098F592E0352D23036D
:1039F000F0011124E80FF11D87FDFA95EE0FFF1F6E
:103A0000E057FE4F4081518146565440B9F28093B1
:103A10007B0520937C0583E00E94FD16ABCF93309D
:103A200059F48F5F2A3091F027FD29E08A3091F018
:103A300087FFDCCF89E0DACF923011F48150F2CFEA
:103A4000911102C02150EECF2F5FECCF20E0EECFDE
:103A500093E0CCCF80E0CACFEB85FC85EA0DFB1D5F
:103A60008081811102C0408285CFF801EA0DFB1DE3
:103A7000808181117FCF80917A0581117BCF408237
:103A800070927A058091A305811116C081100CC037
:103A900082EE0E94F306F601EE0DFF1DE20DF31D0E
:103AA00080810E94F30666CFF601EE0DFF1D2B818B
:103AB0003C81E20FF31FBDC0F601EE0DFF1D4D81ED
:103AC0005E81E40FF51F74CF27FD45C057E0A516B2
:103AD000B10409F0B2C0E981FA8180819181892B1A
:103AE000D1F111821082F801223031F487818823CC
:103AF00009F44FCF17823ECF478270927A058091AA
:103B0000A305811116C081100EC082EE0E94F3063B
:103B1000F10187810E94F3066BE470E080E090E0A1
:103B20000E94D20727CFEB81FC8187810E94181663
:103B3000F3CFED81FE81678181E596E00E946C15EF
:103B4000EBCFE45DFE4FE80FF91F608181E596E061
:103B50000E9416150FCFEB85FC85EA0DFB1D8081B9
:103B6000882339F090917A05911103C081508083A8
:103B700001CFF801EA0DFB1D8081882309F4FACEFC
:103B800080917A058111F6CE108270927A0580912B
:103B9000A305811118C081100EC082EE0E94F306A9
:103BA000F601EE0DFF1DE20DF31D608080EF0E9417
:103BB000F306862D76CFF601EE0DFF1D2B813C819D
:103BC000E20FF31F61C0F601EE0DFF1D4D815E8116
:103BD000E40FF51FBACF223009F03ECFEF81F88510
:103BE00082810E944C06892B09F4D5CE962D990D21
:103BF000F801E90FF11D80818111BCCE4082209136
:103C00007C0580917B05943008F4D8CE022E000C00
:103C1000330B082E000C990B4091A305529EF00126
:103C2000539EF00D11244111BFCEE85AFD4FE80F0D
:103C3000F91F80810E9418169DCE223009F08BCF8B
:103C4000862D890DF801E80FF11D9081992309F463
:103C500091CE1082843008F48DCE20917C05022E06
:103C6000000C330BE0917B058E2FEE0F990B4091EA
:103C7000A305529EF001539EF00D1124411161CF16
:103C8000E85AFD4FE80FF91F80810E94001672CE9E
:103C90002D960FB6F894DEBF0FBECDBFDF91CF914A
:103CA0001F910F91FF90EF90DF90CF90BF90AF905A
:103CB0009F908F907F906F905F904F903F902F904C
:103CC00008952F923F924F925F926F927F928F92C0
:103CD0009F92AF92BF92CF92DF92EF92FF920F939B
:103CE0001F93CF93DF93CDB7DEB728970FB6F89425
:103CF000DEBF0FBECDBF98878F83962E5D834C832A
:103D0000190138012701CE82A9828A2D90E09C01F9
:103D100028523A4F3B832A8382E0F901808314E0E2
:103D200003E060E0892D0E947506EF81F8858081AF
:103D30000E944C06892B09F061C0EF81F8858181D2
:103D40000E944C06892B09F059C061E0892D0E9420
:103D50007506F981FF938E805201630171010C8118
:103D60001D812F81388548E064E080E00E943F1C7F
:103D700086E0EA81FB8180830F90EA81FB8180816C
:103D8000833098F014E060E0892D0E947506EF8181
:103D9000F88582810E944C06892B09F448C061E0B5
:103DA000892D0E947506115071F729812F938E80FD
:103DB0005201630171010C811D812F81388540E022
:103DC00066E080E00E943F1C0F9028960FB6F894A2
:103DD000DEBF0FBECDBFDF91CF911F910F91FF903E
:103DE000EF90DF90CF90BF90AF909F908F907F909B
:103DF0006F905F904F903F902F900895EF81F885DE
:103E000082810E944C06892B51F4EF81F8858381D1
:103E10000E944C06892B19F4EA81FB81008361E042
:103E2000892D0E947506115009F07BCFA6CFEF8136
:103E3000F88583810E944C06892B09F0B0CFF98167
:103E4000FF938E805201630171010C811D812F81CE
:103E5000388542E066E084E00E943F1C61E0892DE5
:103E60000E9475060F90A1CF1F920F920FB60F926E
:103E700011248F939F938091E1009091E100937FB3
:103E80009093E10083FF0FC01092E90091E09093BE
:103E9000EB001092EC0092E39093ED001092D705A6
:103EA00098E09093F00082FF22C093E09093E900A5
:103EB0009091F200992319F09AE39093E800909181
:103EC000A005992341F09091A00591509093A005F1
:103ED000911101C05D9A9091D605992341F090917E
:103EE000D60591509093D605911101C0289A84FF70
:103EF00018C08091E2008E7E81608093E200809104
:103F0000E1008F7E8093E1008091A1058E7E80612B
:103F10008093A1059F918F910F900FBE0F901F90DE
:103F2000189580FFF7CF8091E2008E7E80618093AC
:103F3000E2008091E1008E7E8093E1008091A105F6
:103F40008E7E8160E5CF1F920F920FB60F921124E3
:103F5000CF92DF92EF92FF920F931F932F933F9395
:103F60004F935F936F937F938F939F93AF93BF9381
:103F7000EF93FF93CF93DF93CDB7DEB76C97DEBFA0
:103F8000CDBF1092E9008091E80083FF25C068E072
:103F9000CE0145960E94AE0582EF8093E8008D89A0
:103FA00087FF39C09091E80090FFFCCF982F907662
:103FB00009F034C19E894F89588D2F89F88C911151
:103FC00031C0803861F58091A2058093F100109294
:103FD000F1008EEF8093E8006C960FB6F894DEBF88
:103FE0000FBECDBFDF91CF91FF91EF91BF91AF9108
:103FF0009F918F917F916F915F914F913F912F9101
:104000001F910F91FF90EF90DF90CF900F900FBE18
:104010000F901F9018959EEF9093E800C7CF1092D5
:10402000F100D5CF913059F48111D3CF41305105F2
:1040300081F68091A2058D7F8093A205CACF93302F
:1040400049F48111C6CF4130510519F68091A2057E
:104050008260F2CF953041F48091E80080FFFCCF80
:1040600020682093E300B5CF963009F0A9C00B8DEE
:104070001C8D22E01092E90010929E0510929D0581
:10408000F2122EC010929C0510929B050E94CF0543
:104090001F8299E09983FA8291E09E8390EA988743
:1040A0009AEF998720919D0530919E05275F3F4F9C
:1040B0003C832B838D831092E90010929E05109211
:1040C0009D0510939C0500939B0549E050E0BE01BF
:1040D0006F5F7F4F80E00E9472050E94CF0579CF0D
:1040E00010939C0500939B050E94BB05DC01129672
:1040F0000D911C910115110509F451C1D801ED91E3
:10410000FC910480F581E02DBE016B5E7F4FC801FC
:104110000995009709F03EC1F80100851185EACFA5
:10412000F3E0FF120EC08F89882309F440C082306B
:1041300061F440E862E18AE196E00E943F05811166
:1041400048CF81E28093EB0047CF813029F440E8EB
:1041500068E081E196E0F1CF833099F70E94BB05DA
:10416000DC011296ED90FC908E010F5F1F4F6801ED
:10417000E114F10479F0D701ED91FC910680F7810B
:10418000E02DB801C7010995080F111DF701E08462
:10419000F184EECFD8011C92F60101900020E9F7DE
:1041A0003197BF016C197D0940E0C601C6CF6BEFA6
:1041B00075E0FB01449150E080E80E94720509CF50
:1041C000973009F4BECF983021F481E08093F1005C
:1041D00000CF993009F0FDCE837009F0B2CFEEE048
:1041E000F1E081E031E096E32191222371F08093A8
:1041F000E9003093EB00DF0111972C912093EC0044
:104200009093ED008F5F873079F78EE78093EA0017
:104210001092EA008F898093D705DBCE8B8D9C8D21
:104220001092E90010929E0510929D0590939C05B6
:1042300080939B05898D811192C08E899D89913AC9
:1042400049F4813209F07DCF47E050E065E071E04C
:1042500080E0B3CF913209F074CF833269F48F8953
:10426000988DB0E0A0E08093010190930201A093AB
:104270000301B0930401ADCE803269F48091E8006F
:1042800082FFFCCF67E085E091E00E94AE058BEFF6
:104290008093E8009ECE823209F09BCE8F89809376
:1042A0000C01EEEFFFE7859194918B3F9C4D51F10E
:1042B000E0E0F8E08091050190910601A0910701EE
:1042C000B0910801803B9440A105B105F1F48091C3
:1042D0000C0180FD1AC0EE3F8AE0F80789F587E7F8
:1042E00097E7918380838091600080939F0588E1A8
:1042F0009BE00FB6F894A895809360000FBE909352
:10430000600067CEEEEFFAE0D5CF808191818737EC
:10431000974709F05ECEA8958091600088618093F0
:10432000600080919F0580936000EE3F2AE0F207D5
:1043300089F08091FE0A9091FF0A9183808349CE93
:10434000808191818737980751F29093FF0A80937B
:10435000FE0AC5CF1092FF0A1092FE0A3ACE0E94C2
:10436000BB05DC0112960D911C910115110509F494
:10437000E8CED801ED91FC910190F081E02DBE01D5
:104380006B5E7F4FC8010995811123CEF80100852E
:104390001185EBCF181619060CF41BCED2CEF1E026
:1043A000FF12BECE6FEF75E004CF1F920F920FB6D3
:1043B0000F9211242F933F938F939F93AF93BF93AB
:1043C0008091870590918805A0918905B0918A0513
:1043D0003091860523E0230F2D3758F50196A11D56
:1043E000B11D209386058093870590938805A0933F
:1043F0008905B0938A0580918B0590918C05A091D9
:104400008D05B0918E050196A11DB11D80938B0580
:1044100090938C05A0938D05B0938E05BF91AF91BD
:104420009F918F913F912F910F900FBE0F901F90F2
:10443000189526E8230F0296A11DB11DD2CFCF9368
:104440001092DD051092DC0588EE93E0A0E0B0E06C
:104450008093DE059093DF05A093E005B093E1051E
:1044600081E294E09093DB058093DA058FEF9FEF74
:104470009093E7058093E605109254061092530638
:104480008FE394E090935206809351068091490601
:10449000811113C010924406109243068DEA96E0F3
:1044A00090934606809345068FE290E090934806ED
:1044B0008093470681E08093490680913B068111F5
:1044C0002AC0C1E0C0932E06C0932F0684E396E075
:1044D0009093310680933006109233061092320684
:1044E00083E394E090932B0680932A06109236067D
:1044F000109235061092380610923706C09339068E
:10450000C0933A0681EC809334060E94BB050E945A
:104510001C04C0933B06E0913506F09136063097B7
:1045200009F0DEC083E496E090933606809335066A
:1045300080913706909138062091470630914806C1
:10454000820F931F90933806809337068DE296E092
:1045500090935E0680935D068CE090E090937607E2
:10456000809375078EE190E09093780780937707AA
:104570008CE090E00E94DF068091770790917807A9
:104580000E94DF061092E2061092E10689E993E0AC
:104590009093700780936F071092720710927107C3
:1045A00010927407109273071092FB068BE494E04C
:1045B0009093E0068093DF061092E4061092E306E3
:1045C0001092F8061092EF061092F0061092F10683
:1045D0001092F2068FEF8093F9068093FD06E1E0DA
:1045E000F7E087E197E0CFEFC1938E179F07E1F7E0
:1045F00082EE9BE09093E8068093E70687ED9CE0CF
:104600009093EA068093E9068FEB9AE09093EC068C
:104610008093EB068AEE99E09093EE068093ED0688
:1046200030E020E040E069E083EE96E00E94E20B9B
:1046300010923E0710923D0783EA93E0909318078B
:10464000809317078FE596E090931C0780931B07D4
:1046500081E080931D0710921E0710924C07109264
:104660006C071092680780936D0780936E0783E54F
:1046700094E090931A078093190783EE96E00E94C6
:10468000920D109236071092350710923A07109249
:1046900039078FEF9FEF90933807809337079093F8
:1046A0003C0780933B07E0911907F0911A070280BD
:1046B000F381E02D83EE96E0099582E194E09093FA
:1046C000400780933F0710924F0783E080930D07C8
:1046D00082E080930E07C0930C07CF910895FC01F0
:1046E000808191810097D9F783E496E0918380835C
:1046F0001FCFCF93DF93CDB7DEB728970FB6F894CF
:10470000DEBF0FBECDBF789484B5826084BD84B512
:10471000816084BD85B5826085BD85B5816085BDBC
:1047200080916E00816080936E0010928100809174
:1047300081008260809381008091810081608093FC
:104740008100809180008160809380008091910041
:1047500082608093910080919100816080939100AC
:10476000809190008160809390008091C10084606E
:104770008093C1008091C10082608093C1008091CC
:10478000C10081608093C1008091C30081608093EB
:10479000C3008091C00082608093C0008091C200FD
:1047A00081608093C20080917A00846080937A0057
:1047B00080917A00826080937A0080917A00816093
:1047C00080937A0080917A00806880937A001092BA
:1047D000D7051092A2051092A1058091D7008160A3
:1047E0008093D70080EA8093D80089B5806189BD25
:1047F00089B5826089BD09B400FEFDCF61E070E03B
:1048000080E090E00E94D2078091D8008F7C806188
:104810008093D8008091E000807F8093E0008091B9
:10482000E1008E7E8093E1008DE08093E200559A56
:10483000209A61E085E00E94A30660E085E00E9486
:10484000750682E090E09A83898383E090E09C8300
:104850008B8361E00E94A30661E089810E94A30628
:1048600081E090E098878F8361E08B810E947506DC
:1048700061E089810E94750660E0CE0101960E9488
:10488000D21408E010E058E7F52E60E08B810E941A
:104890007506EF2CEE1CEE24EE1C6E2DCE0101965B
:1048A0000E94D21461E08B810E9475066E2DCE01AC
:1048B00001960E94D214FF0C0150110931F760E0FB
:1048C0008B810E94750660E089810E94A30618868C
:1048D0001F8261E08B810E9475060E94AD076B010B
:1048E0007C0189810E944C06892BA1F10E94AD07B1
:1048F0006C197D098E099F09653671058105910541
:1049000080F310E060E08B810E94750660E0CE01CC
:1049100001960E94D21461E08B810E94750661E0CD
:10492000CE0101960E94D214112319F080E00E945A
:10493000FD1607E01091A30511110EC00150B9F04A
:1049400064EF71E080E090E00E94D20781E00E9475
:10495000FB1BF0CF11E0D6CF11E028C082E090E041
:104960000E942B1C6091BC0583E090E0CFC090E0DA
:1049700080E00E94C9258093D505863010F0109202
:10498000D50581E090E00E94C9258093BC05863062
:1049900010F01092BC058AEA0E94F306892BD9F721
:1049A0006AE070E080E090E00E94D20747E1E42EE8
:1049B00044E0F42E62E0F70181917F010E94A3069A
:1049C000FDE1EF16F4E0FF06A9F761E087E00E9441
:1049D000A30661E087E00E94750682E10E944C0612
:1049E000892B41F483E10E944C06019719F481E080
:1049F0008093D50583E10E944C06892B41F482E126
:104A00000E944C06019719F482E08093D50584E159
:104A10000E944C06892B41F485E10E944C060197C7
:104A200019F483E08093D50585E10E944C06892B1B
:104A300041F484E10E944C06019719F484E08093CC
:104A4000D5058EE00E944C06892B11F41092D505F5
:104A500039E9E32E33E0F32E62E0F70181917F0123
:104A60000E94A306FFE9EF16F3E0FF06A9F761E055
:104A700085E00E94A30661E085E00E94750681E062
:104A80000E944C06892B41F480E00E944C0601975D
:104A900019F481E08093BC0580E00E944C06892BCC
:104AA00041F481E00E944C06019719F482E0809362
:104AB000BC0582E00E944C06892B41F483E00E94F1
:104AC0004C06019719F483E08093BC0583E00E94B3
:104AD0004C06892B41F482E00E944C06019719F4A0
:104AE00084E08093BC0584E00E944C06892B11F47D
:104AF0001092BC056091D505111130CF90E080E097
:104B00000E942B1C6091BC0581E090E00E942B1C50
:104B100020E0822E20E0922EB090D805D090D905CA
:104B2000A12CC090D5058FE9E82E83E0F82E0BED7F
:104B300013E02DEB35E049EC55E067E087E194E0C8
:104B40000E94611EAA24A394C090BC0591E2E92EA4
:104B500093E0F92E0DE513E024EA35E040EB55E053
:104B600065E089E993E00E94611E8091D805B81242
:104B700004C08091D905D81619F081E00E94FD1675
:104B800080E00E94FB1B8114910431F20E9400001E
:104B9000C3CFF999FECF92BD81BDF89A992780B510
:104BA0000895262FF999FECF1FBA92BD81BD20BD71
:104BB0000FB6F894FA9AF99A0FBE01960895EE0F7F
:104BC000FF1F0590F491E02D0994DC0101C06D9365
:0C4BD00041505040E0F70895F894FFCFEA
:104BDC00FFFFFFFFFF00E100000000000000C180AC
:104BEC0081000000201820280B2035202030353083
:104BFC000B301040353820380B38304031323334DC
:104C0C0035363738393071776572747975696F70EC
:104C1C006173646667686A6B6C207A786376626E1F
:104C2C006D20B22020B1202020202020B020C220D6
:104C3C00C320C420C520C620C720C820C920CA2034
:104C4C00CB2020CC20CD20208120852020802082CC
:104C5C00202086208420DA20D920D820D720B32009
:104C6C002305270588040C050F0590041505180568
:104C7C001B051F05BF04C1047804C304C504C70485
:104C8C00C9048004CB04CD04CF04D104D304D504CF
:104C9C00D704D904DB04DD04DF046604E104E30477
:104CAC00E504E704E904EB04AF046604ED046604D0
:104CBC006604F20466046604F6046604660466047C
:104CCC00FC04660402056604050566040805660412
:104CDC000B0566040E0566041105660414056604CE
:104CEC00170566041A0566041D056604660421058D
:104CFC006604250566046604290566042D0566040C
:104D0C0066043105660435056604660439056604D7
:104D1C003D056604410566044405660447056604C2
:104D2C004A0566044D056604161E26252E363D3EA4
:104D3C004645151D242D2C353C43444D1C1B232B63
:104D4C0034333B424B201A22212A32313A2066203E
:104D5C0020762020292020205A20052006200420FF
:104D6C000C2003200B2083200A200120092020780E
:104D7C00200720201220592020142011202011203F
:104D8C001420752072206B2074200D201815A0158E
:104D9C00C019FF1815A115C819FF1815AE19FF1861
:104DAC0015AF19FF1815AE15D5168015A8163F1599
:104DBC00D316001540158D16141520160015A115C7
:104DCC00C815DA1612158116CF15D916F115DB1682
:104DDC0040152E15A415A619FF0001140A6464329F
:104DEC003200127A0000042896100800008000405F
:104DFC000071616F706DB0B1CD7A79786365647351
:104E0C006671B381B1B0B371CFDAD9D8D7B030B144
:104E1C00C67A79786D3736353830B0B1CD7A797845
:104E2C006DDAD9D8D734353637383930414E4F4C06
:104E3C004D535452505756555175726B74115A76D6
:104E4C00051A35223A3D362E3E455A76051A35223C
:104E5C003A75726B74455A76031A35223A75726B31
:104E6C00742929290329292929010002030406DAB6
:104E7C00D9D8D7B086B1CD7A79786DDAD9D8D77838
:104E8C00637AB1B06378CFDAD9D8D7B030B1C67AFB
:104E9C0079786D3736353830B0B1CD7A79786DDABE
:104EAC00D9D8D73435363738393041424340414769
:104EBC004846444B4A494575726B74115A76051A2B
:104ECC0035223A3D362E3E455A76051A35223A752C
:104EDC00726B74455A76031A35223A75726B7429C3
:104EEC0029290329292929121314150E0F00000052
:104EFC00009404F208A905AA04F704B504D304002D
:104F0C000000000809810946092B0900000000EA8D
:104F1C0015EA14A916A8160000000055162D16A99E
:104F2C0016A816920D1D0E820D434F4E4E4543543E
:104F3C00494E472E2E2E00555342204D4F444500CE
:104F4C0050532F32204D4F44450031204154415293
:104F5C0049003120534547413300312053454741E7
:104F6C0036003220415441524900322053454741CA
:104F7C0033003220534547413600435553544F4D6F
:104F8C00004B4559424F415244204D4F444500512E
:104F9C0000570052005400590055004F005000417A
:104FAC0000530044004600470048004A004B004CA8
:104FBC00005A0058004300560042004E00626B73CA
:104FCC00700065736300737061636500656E746572
:104FDC0072004631004632004633004634004635F6
:104FEC000046360046370046380046390046313018
:104FFC000046313100463132004C73680052736800
:10500C00004C637400616C740061677200526374CD
:10501C0000437500436400436C004372007461628A
:02502C00000082
:00000001FF
