:100000000C942C010C9454010C9454010C94540144
:100010000C9454010C9454010C9454010C9454010C
:100020000C9454010C9454010C94930A0C94020BFC
:100030000C9454010C9454010C9454010C945401EC
:100040000C9454010C9454010C9454010C945401DC
:100050000C9454010C9454010C9454010C94490ACE
:100060000C9454010C9454010C9454010C945401BC
:100070000C9454010C9454010C9454010C945401AC
:100080000C9454010C9454010C9454010C9454019C
:100090000C9454010C9454010C9454010C9454018C
:1000A0000C9454010C9454010C945401080B00025C
:1000B0000202000009040000010202000005240001
:1000C0001001052401010104240206052406000193
:1000D0000705810310004009040100020A00000026
:1000E00007050202400000070583024000000403E8
:1000F000090412010002EF0201404F1B06920001A9
:1001000001020301537061726B46756E005370619A
:10011000726B46756E2050726F204D6963726F006E
:1001200000000000240027002A002D0030000000FD
:100130000000250028002B002E00310000000000E8
:100140002300260029002C002F00040404040403CB
:100150000405020202020403020202020606060667
:10016000060604040202020404040802011040808E
:10017000401020408040800802040180402010028E
:1001800001108010204040200000000200090F00F4
:1001900000030401000C000000000000000000004B
:1001A00000000000000000000000000000002A2BFA
:1001B0002800000000000000000000000000000017
:1001C0000000000000002C9EB4A0A1A2A434A6A7A9
:1001D000A5AE362D3738271E1F20212223242526A1
:1001E000B333B62EB7B89F8485868788898A8B8C6F
:1001F0008D8E8F909192939495969798999A9B9CB7
:100200009D2F3130A3AD350405060708090A0B0CF4
:100210000D0E0F101112131415161718191A1B1C96
:100220001DAFB1B0B50005010906A10185020507A2
:1002300019E029E71500250175019508810295014E
:1002400075088103950675081500257305071900C3
:1002500029738100C000340D11241FBECFEFDAE0F6
:10026000DEBFCDBF12E0A0E0B1E0E0E9FEE102C0F8
:1002700005900D92AA30B107D9F722E0AAE0B2E0CA
:1002800001C01D92A73EB207E1F711E0CCE2D1E038
:1002900004C02197FE010E94400FCB32D107C9F75D
:1002A0000E94DD0D0C94460F0C940000CF93DF9359
:1002B000FC0181819091B202482F490F5527551FAB
:1002C000483051059CF5A281B381109709F52EEABB
:1002D00032E03383228320812093B0028093B102E5
:1002E0008091B302820F80832091B402A22FB0913B
:1002F000B5028A2F821B8917E8F481813D91C82FAE
:10030000D0E0C45FDE4F38838F5F8183F2CFD901A5
:1003100018962D913C91199721153105C1F72EEAB8
:1003200032E019963C932E931897D5CF80E0DF9159
:10033000CF91089581E0FBCFFC0180915A02882380
:1003400011F13FB7F89482E08093E9002091F20028
:10035000822F90E01816190614F481E090E08823AB
:1003600039F0289844E6409359024091F1004083C7
:10037000222339F02091F200211103C02BE62093B3
:10038000E8003FBF08958FEF9FEF0895CF93DF936D
:100390001F92CDB7DEB76983DC01ED91FC9102803D
:1003A000F381E02D41E050E0BE016F5F7F4F099582
:1003B0000F90DF91CF91089583E08093E9008091C1
:1003C000F200882319F08AE38093E8000895CF9320
:1003D000DF931F92CDB7DEB7FC018485958597FD2D
:1003E00008C02FEF3FEF358724870F90DF91CF9123
:1003F0000895CE0101960E949C01019719F489810C
:1004000090E0F3CF8FEF9FEFF0CF0F931F93CF9339
:10041000DF931F92CDB7DEB78C01FC0184859585F3
:1004200097FF0BC0CE0101960E949C01019771F4C9
:10043000898190E0F80195878487F8018485958506
:100440000F90DF91CF911F910F9108958FEF9FEF44
:10045000F1CFFC018485958597FD0BC09FB7F8947B
:1004600082E08093E9008091F2009FBF90E00196C6
:1004700008959FB7F89482E08093E9008091F2009C
:100480009FBF90E0089581508F3008F047C0E82F5B
:10049000F0E0E35BFD4F0C94400F6A026E025C02D9
:1004A000620266028E028E028E02710277027B0267
:1004B0007F0285028E028902809180008F7780936F
:1004C00080000895809180008F7DF9CF8091800019
:1004D000877FF5CF84B58F7784BD089584B58F7DF0
:1004E000FBCF809190008F7780939000089580914A
:1004F00090008F7DF9CF80919000877FF5CF80911C
:10050000C0008F778093C00008958091C0008F7DD8
:10051000F9CF8091C200877F8093C2000895CF9366
:10052000DF93282F30E0F901E857FE4F8491F9015D
:10053000E759FE4FD491F901E65BFE4FC491CC23FD
:10054000A1F081110E944302EC2FF0E0EE0FFF1F9B
:10055000E45CFE4FA591B491EC91ED2381E090E035
:1005600009F480E0DF91CF91089580E090E0FACF28
:100570001F93CF93DF93282F30E0F901E857FE4F08
:100580008491F901E759FE4FD491F901E65BFE4FE2
:10059000C491CC23A9F0162F81110E944302EC2FA5
:1005A000F0E0EE0FFF1FE25DFE4FA591B4918FB713
:1005B000F894EC91111108C0D095DE23DC938FBF25
:1005C000DF91CF911F910895DE2BF8CFCF93DF936A
:1005D00090E0FC01E759FE4F2491865B9E4FFC01A1
:1005E00084918823C9F090E0880F991FFC01E05E98
:1005F000FE4FA591B491FC01E25DFE4FC591D491EF
:1006000061110DC09FB7F8948C91209582238C9333
:100610008881282328839FBFDF91CF91089562307E
:1006200051F49FB7F8943C91822F809583238C934B
:10063000E8812E2BEFCF8FB7F894EC912E2B2C93D3
:100640008FBFEACFCF93C82F60E00E94E60261E03F
:100650008C2FCF910C94B802CF93C82F60E00E94EA
:10066000B80261E08C2FCF910C94E602AF92BF925A
:10067000CF92DF92EF92FF920F931F93CF93DF936E
:10068000182F8091E3020E948F02892BD1F3809171
:10069000E5020E948F02892BA1F38091E5029091DF
:1006A000E6020E942C03CBE4D0E0CE010197F1F7E3
:1006B0008091E3029091E4020E942C038BE990E088
:1006C0000197F1F78091E3029091E4020E942203E6
:1006D0002197F1F7D8E0C1E02BE4C22ED12C3BE901
:1006E000A32EB12CE12EF12C8091E5029091E6022F
:1006F000012F017010FF6EC00E942203C6010197F6
:10070000F1F78091E3029091E4020E942C03C5016D
:100710000197F1F78091E3029091E4020E94220395
:10072000C6010197F1F7802F8C27F594E7941E2DD1
:10073000D15009F04DC08091E5029091E6020C176E
:1007400009F44BC00E942203CBE4D0E0CE01019714
:10075000F1F78091E3029091E4020E942C030BE9EF
:1007600010E0C8010197F1F78091E3029091E40253
:100770000E942203CE010197F1F78091E50290914A
:10078000E6020E942203CE010197F1F78091E30275
:100790009091E4020E942C03C8010197F1F7809127
:1007A000E3029091E4020E9422032197F1F78BE586
:1007B00099E00197F1F790E080E0DF91CF911F91F0
:1007C0000F91FF90EF90DF90CF90BF90AF90089582
:1007D000C82F88CF0E942C0391CF0E942C03B4CF46
:1007E0003FB7F8948091550290915602A09157021C
:1007F000B091580226B5A89B05C02F3F19F001966D
:10080000A11DB11D3FBFBA2FA92F982F8827BC016A
:10081000CD01620F711D811D911D42E0660F771F92
:10082000881F991F4A95D1F708958F929F92AF9292
:10083000BF92CF92DF92EF92FF924B015C010E9438
:10084000F0036B017C010E94F0036C197D098E0995
:100850009F09683E734081059105A8F321E0821A43
:100860009108A108B10888EEC80E83E0D81EE11CEB
:10087000F11C81149104A104B10429F7FF90EF90B9
:10088000DF90CF90BF90AF909F908F900895409150
:100890001802509119022091160230911702421746
:1008A0005307B4F49091E8009570E1F39091E8005B
:1008B00092FD19C08093F100809118029091190265
:1008C00001968F739927892B19F48EEF8093E80096
:1008D00080911802909119020196909319028093C9
:1008E000180281E0089580E00895EF92FF920F933F
:1008F0001F93CF93DF93F82E192FE62E042F81E05C
:10090000860F880F0E94470483E00E944704CF2D82
:10091000D12FEC0EFD2EF11CCE15DF05B9F007FF2F
:1009200013C0FE0184910E944704182F80E00E94AA
:100930004704812321968111EFCFDF91CF911F9141
:100940000F91FF90EF9008958881EDCF81E0F5CF72
:10095000DF92EF92FF920F931F93CF93DF93D82EE6
:100960008A01EB017B01E40EF51ECE15DF0559F07F
:10097000D7FE12C0FE0184910E9447042196811186
:10098000F4CF0FEF1FEFC801DF91CF911F910F91AF
:10099000FF90EF90DF9008958881EECF2FB7F89405
:1009A00087708093E9009091E800892F807295FF0D
:1009B00004C09091F20080E4891B2FBF089583E06A
:1009C0000E94CE0490E008957F928F929F92AF9202
:1009D000BF92CF92DF92EF92FF920F931F93CF932C
:1009E000DF93C82E8B017A0180915A02811110C0C9
:1009F0008FEF9FEFDF91CF911F910F91FF90EF90BD
:100A0000DF90CF90BF90AF909F908F907F90089590
:100A100080911C0280FF05C08091E000826080937D
:100A2000E000CE2DDF2DD12C8AEFB82E8C2D8770D3
:100A3000982E8C2D8072882E8C2D8074782E9AE3BF
:100A4000A92E209719F4DD2009F452C08C2D0E94A4
:100A5000CE0481110AC0BA94BB2051F261E070E06B
:100A600080E090E00E941504ECCF8C171D0611F079
:100A70000CF08C2F9FB7F8949092E9002091E80039
:100A800025FD02C09FBFDDCF282F30E0C21BD30B56
:100A9000882029F08150A0F01092F100FBCFF801DE
:100AA000C7FC0AC0815050F041914093F100FACF49
:100AB00044914093F10031968150D0F7020F131FFB
:100AC000DD2021F0A092E800D12CDCCF8091E8005D
:100AD00085FD07C0A092E800DD24D394209791F211
:100AE000F3CF209779F6772069F2A092E800CACF79
:100AF0005D9884E680931B02C7017CCFCF93DF9380
:100B0000EC0180910B01882331F083E00E94E40422
:100B10001816190634F081E090E09B838A8380E008
:100B200090E0DF91CF910895615030F02091F10075
:100B3000FC0120830196F8CF289884E6809359021F
:100B4000089580910E0281110DC082E080930A0207
:100B500084E080930B0210920D0210920C0281E04F
:100B600080930E028AE092E00895EF92FF921F9325
:100B7000CF93DF931F92CDB7DEB77C018091BF0288
:100B800081112AC011E01093B2021093B30288EBD6
:100B900092E09093B5028093B4021092B702109243
:100BA000B60285EF91E09093AF028093AE0210926F
:100BB000BA021092B9021092BC021092BB021093BA
:100BC000BD021093BE0281EC8093B8020E94A10581
:100BD0000E9456011093BF0282E0898341E050E0F9
:100BE000BE016F5F7F4F8091B1020E94E40497FDC8
:100BF00008C08091B10248E050E0B70180640E94D3
:100C0000E4040F90DF91CF911F91FF90EF90089532
:100C10000F931F93CF93DF931F92CDB7DEB782E080
:100C2000898342E450E06CEA70E080E80E94A80406
:100C30000E94A105DC0112960D911C910115110570
:100C400089F0D801ED91FC910280F381E02DBE0185
:100C50006F5F7F4FC801099597FD04C0F8010085BB
:100C60001185ECCF89810F90DF91CF911F910F916A
:100C70000895DC01FB0112962C91129784819581D5
:100C80002817190641F491818081813A31F49D7FC2
:100C900081E0913009F080E008958132E1F79B30E6
:100CA00029F482811F968C9381E008959A3099F7F8
:100CB000828150968C93F8CFDC01FB0188E480831D
:100CC00089E4818384E482831D969C911D979F70A3
:100CD0009F5B93831D968D919C9124E096958795BB
:100CE0002A95E1F78F708F5B848385E00895EF92FA
:100CF000FF920F931F93CF93DF93FB012081213845
:100D000071F52381223259F5DC0112964C91248130
:100D100035814217130619F5EC010B851C85F12C62
:100D2000E12C0115110589F0F8014481558162819A
:100D3000738180E80E94A8048F3F980749F0E80E6D
:100D4000F91ED8010D911C91ECCF81E08F87C7016E
:100D5000DF91CF911F910F91FF90EF90089590E058
:100D600080E0F6CFCF93DF93CDB7DEB769970FB6AC
:100D7000F894DEBF0FBECDBFFC01DB018C918F5F0D
:100D80008C939E012D5F3F4F8DE0D9011D928A9576
:100D9000E9F729E0298384E08A8391E09D8383E059
:100DA0008E832A8721E22B879C879D879F8722E25B
:100DB000288B27E02B8B25E02C8B8E8B20E430E0DA
:100DC000388F2F8B998F82818B8395858685998B20
:100DD0008A8B838180688D8B49E150E0BE016F5F13
:100DE0007F4F80E00E94A80469960FB6F894DEBF9A
:100DF0000FBECDBFDF91CF910895CF92DF92EF92DA
:100E0000FF920F931F93CF93DF936C01EB017B0154
:100E1000E40EF51E10E000E0CE15DF0581F06991CB
:100E20006D30D1F3D601ED91FC910190F081E02D70
:100E3000C6010995892B19F00F5F1F4FEDCFC8012F
:100E4000DF91CF911F910F91FF90EF90DF90CF90A6
:100E50000895DC016838A0F06858FD0186E066233B
:100E600021F09681961301C016828150319681112E
:100E7000F6CFCD0104960E94B50581E090E008957B
:100E8000862F90E067FF13C0FC01E058F10981E074
:100E900090E001C0880FEA95EAF7809514969C913E
:100EA0001497892314968C93149760E0D6CF1C96E0
:100EB000ED91FC911D97E80FF91F64916623E1F015
:100EC000862F807C803C69F414968C9114978F7BDC
:100ED00014968C9314976F73623309F0BECF64E657
:100EE000BCCF67FFF9CF14968C9114978D7F149621
:100EF0008C9314976F77F0CF90E080E00895DC0139
:100F0000683888F1685816968C911697861721F1E3
:100F100017968C9117978617F9F018968C91189759
:100F20008617D1F019968C9119978617A9F01A9601
:100F30008C911A97861781F01B968C911B978617B8
:100F400059F0FD01369690E080E0219121114FC0CB
:100F50008A0F9B1FFC016683CD0104960E94B50594
:100F600081E090E00895862F90E067FF12C0FC01B9
:100F7000E058F10921E030E001C0220FEA95EAF7DC
:100F800014968C911497822B14968C93149760E08E
:100F9000BACF1C96ED91FC911D97E80FF91F649153
:100FA000611109C081E090E013969C938E93129793
:100FB00090E080E00895862F807C803C69F4149650
:100FC0008C911497806414968C9314976F7362338A
:100FD00009F099CF64E697CF67FFF9CF14968C910B
:100FE0001497826014968C9314976F77F0CF0196C4
:100FF0008630910509F0A9CFD5CFEF92FF921F93CC
:10100000CF93DF93EC01162F0E947F077C01612FA5
:10101000CE010E942907C7019927DF91CF911F9127
:10102000FF90EF900895089590E080E00895CF93A9
:10103000C82F823741F08B3631F08CE88C0F82302C
:1010400010F0C13119F480EE0E94360380EF0E9447
:1010500036038C2F0E94360380E0CF910895CF9302
:10106000C82F823741F08B3631F08CE88C0F8230FC
:1010700010F0C13119F480EE0E9436038C2F0E94CB
:10108000360380E0CF9108952F923F924F925F9266
:101090006F927F928F929F92AF92BF92CF92DF9288
:1010A000EF92FF920F931F93CF93DF9300D000D066
:1010B000CDB7DEB74C01B62E3A01190110925D0290
:1010C00080915C02882319F0815080935C0260E07B
:1010D0008B2D0E94B802F40182810E948F02FCE0F5
:1010E000CF9E6001112428014C0C5D1CCE0CDF1C2E
:1010F000892B49F5F40183810E948F02892B19F510
:1011000081E080935D027401F4E0EF0EF11C29820E
:101110003A8206E010E0F70181917F010E948F0280
:10112000E981FA81892B09F0C4C08681811197C0B9
:1011300081E0868389819A8101969A838983073029
:10114000110509F089C061E08B2D0E94B8029A82D6
:1011500089822B823C82EB80FC80140110E000E04D
:10116000F10181911F010E948F02F701892B09F083
:10117000F7C080818111CAC081E080830F5F1F4F5B
:101180008FEFE81AF80A0630110551F780915D02D9
:10119000882309F467C160E08B2D0E94B802F40136
:1011A00080810E948F02892B09F05CC1F40181814A
:1011B0000E948F02892B09F055C161E08B2D0E949E
:1011C000B80208E010E083E0F82EE981FA8181910D
:1011D000FA83E9830E948F02EB81FC81892B09F05D
:1011E00015C180858111E9C081E080878B819C8158
:1011F00001969C838B830F5F1F4F0C30110529F7DD
:1012000060E08B2D0E94B80261E08B2D0E94B80235
:1012100064E170E080E090E00E94150460E08B2DB6
:101220000E94B80261E08B2D0F900F900F900F90ED
:10123000DF91CF911F910F91FF90EF90DF90CF90B2
:10124000BF90AF909F908F907F906F905F904F90E6
:101250003F902F900C94B80207E010E05CCFF301B0
:10126000E00FF11F8081811165CF80915C028111B7
:1012700061CF81E08083F3E0F0935C02F201E00F44
:10128000F11F80810E942F0880915B02882341F02A
:10129000F601E00FF11F608185ED92E00E947F076B
:1012A00021E060E08EE1A21201C081E10E94B8025B
:1012B00041CF8681882331F090915C02911102C068
:1012C000815037CFF301E00FF11F8081813009F0A9
:1012D00031CF80915C0281112DCF1082F3E0F09329
:1012E0005C02F201E00FF11F80810E9417088091DB
:1012F0005B02882341F0F601E00FF11F608185ED6C
:1013000092E00E94290721E061E0CCCFF301E00FD9
:10131000F11F8081811132CF80915C0281112ECF2B
:1013200081E08083F3E0F0935C02F201E00FF11FB3
:1013300080810E942F0880915B02882341F0F60192
:10134000E00FF11F608185ED92E00E947F0721E0B0
:1013500060E08EE1A21201C081E10E94B8020ECFCE
:101360008081882331F090915C02911102C08150FC
:1013700004CFF301E00FF11F8081813009F0FECE30
:1013800080915C028111FACE1082F3E0F0935C024E
:10139000F201E00FF11F80810E94170880915B022B
:1013A000882341F0F601E00FF11F608185ED92E0A6
:1013B0000E94290721E061E0CCCFF301E00FF11F8B
:1013C0008081811113CF80915C0281110FCF81E068
:1013D0008083F0925C02F201E00FF11F80810E9495
:1013E0002F0880915B02882341F0F601E00FF11F86
:1013F000608185ED92E00E947F07F1E060E08EE180
:10140000AF1201C081E10E94B802F0CE808588232E
:1014100031F090915C02911102C08150E6CEF3014F
:10142000E00FF11F8081813009F0E0CE80915C02F5
:101430008111DCCE1082F0925C02F201E00FF11F0C
:1014400080810E94170880915B02882341F0F60199
:10145000E00FF11F608185ED92E00E942907F1E025
:1014600061E0CDCF0F900F900F900F90DF91CF9153
:101470001F910F91FF90EF90DF90CF90BF90AF90B2
:101480009F908F907F906F905F904F903F902F90A4
:1014900008951F920F920FB60F9211242F933F932E
:1014A0008F939F93AF93BF9380915102909152027B
:1014B000A0915302B09154023091500223E0230FC7
:1014C0002D3758F50196A11DB11D20935002809330
:1014D000510290935202A0935302B0935402809110
:1014E000550290915602A0915702B0915802019670
:1014F000A11DB11D8093550290935602A0935702EF
:10150000B0935802BF91AF919F918F913F912F91CE
:101510000F900FBE0F901F90189526E8230F02968C
:10152000A11DB11DD2CF1F920F920FB60F921124A1
:101530008F939F938091E1009091E100937F90932E
:10154000E10083FF0FC01092E90091E09093EB005F
:101550001092EC0092E39093ED0010925A0298E002
:101560009093F00082FF22C093E09093E900909165
:10157000F200992319F09AE39093E80090911B02EE
:10158000992341F090911B02915090931B0291116D
:1015900001C05D9A90915902992341F090915902AE
:1015A000915090935902911101C0289A84FF18C05C
:1015B0008091E2008E7E81608093E2008091E10064
:1015C0008F7E8093E10080911C028E7E80618093EB
:1015D0001C029F918F910F900FBE0F901F90189536
:1015E00080FFF7CF8091E2008E7E80618093E200E1
:1015F0008091E1008E7E8093E10080911C028E7EBE
:101600008160E5CF1F920F920FB60F921124CF92F7
:10161000DF92EF92FF920F931F932F933F934F937D
:101620005F936F937F938F939F93AF93BF93EF934A
:10163000FF93CF93DF93CDB7DEB76C97DEBFCDBFFF
:101640001092E9008091E80083FF25C068E0CE0198
:1016500045960E94940582EF8093E8008D8987FF6C
:1016600039C09091E80090FFFCCF982F907609F058
:1016700034C19E894F89588D2F89F88C911131C0C2
:10168000803861F580911D028093F1001092F10085
:101690008EEF8093E8006C960FB6F894DEBF0FBE15
:1016A000CDBFDF91CF91FF91EF91BF91AF919F910E
:1016B0008F917F916F915F914F913F912F911F91EA
:1016C0000F91FF90EF90DF90CF900F900FBE0F9093
:1016D0001F9018959EEF9093E800C7CF1092F100ED
:1016E000D5CF913059F48111D3CF4130510581F6D6
:1016F00080911D028D7F80931D02CACF933049F4E3
:101700008111C6CF4130510519F680911D028260CA
:10171000F2CF953041F48091E80080FFFCCF206843
:101720002093E300B5CF963009F0A9C00B8D1C8D36
:1017300022E01092E9001092190210921802F2129F
:101740002EC010921702109216020E9408061F82E5
:1017500099E09983FA8291E09E8390EA98879AEFC4
:1017600099872091180230911902275F3F4F3C83DF
:101770002B838D831092E9001092190210921802A7
:10178000109317020093160249E050E0BE016F5F0C
:101790007F4F80E00E94A8040E94080679CF109332
:1017A0001702009316020E94A105DC0112960D910A
:1017B0001C910115110509F451C1D801ED91FC915D
:1017C0000480F581E02DBE016B5E7F4FC801099555
:1017D000009709F03EC1F80100851185EACFF3E0DA
:1017E000FF120EC08F89882309F440C0823061F453
:1017F00040E862E18DE091E00E947504811148CFDC
:1018000081E28093EB0047CF813029F440E868E023
:1018100084E091E0F1CF833099F70E94A105DC01CB
:101820001296ED90FC908E010F5F1F4F6801E1143E
:10183000F10479F0D701ED91FC910680F781E02D5C
:10184000B801C7010995080F111DF701E084F18463
:10185000EECFD8011C92F60101900020E9F73197F4
:10186000BF016C197D0940E0C601C6CF6EEE70E085
:10187000FB01449150E080E80E94A80409CF973012
:1018800009F4BECF983021F481E08093F10000CFBD
:10189000993009F0FDCE837009F0B2CFEDE0F1E0B0
:1018A00081E031E096E32191222371F08093E900F9
:1018B0003093EB00DF0111972C912093EC00909373
:1018C000ED008F5F873079F78EE78093EA00109202
:1018D000EA008F8980935A02DBCE8B8D9C8D10920B
:1018E000E900109219021092180290931702809347
:1018F0001602898D811192C08E899D89913A49F491
:10190000813209F07DCF47E050E064E071E080E093
:10191000B3CF913209F074CF833269F48F89988DF7
:10192000B0E0A0E08093000190930101A093020138
:10193000B0930301ADCE803269F48091E80082FF5C
:10194000FCCF67E084E091E00E9494058BEF8093E8
:10195000E8009ECE823209F09BCE8F8980930B01E6
:10196000EEEFFFE7859194918B3F9C4D51F1E0E0C4
:10197000F8E08091040190910501A0910601B091D9
:101980000701803B9440A105B105F1F480910B0162
:1019900080FD1AC0EE3F8AE0F80789F587E797E7F0
:1019A000918380838091600080931A0288E19BE09C
:1019B0000FB6F894A895809360000FBE90936000D6
:1019C00067CEEEEFFAE0D5CF8081918187379747D8
:1019D00009F05ECEA89580916000886180936000D8
:1019E00080911A0280936000EE3F2AE0F20789F0AE
:1019F0008091FE0A9091FF0A9183808349CE808175
:101A000091818737980751F29093FF0A8093FE0ADD
:101A1000C5CF1092FF0A1092FE0A3ACE0E94A1058D
:101A2000DC0112960D911C910115110509F4E8CE07
:101A3000D801ED91FC910190F081E02DBE016B5E2B
:101A40007F4FC8010995811123CEF80100851185CA
:101A5000EBCF181619060CF41BCED2CEF1E0FF1214
:101A6000BECE62EF70E004CFCF931092610210926D
:101A7000600288EE93E0A0E0B0E080936202909371
:101A80006302A0936402B093650283EE91E09093A9
:101A90005F0280935E028FEF9FEF90936B028093C3
:101AA0006A021092D8021092D70281E092E09093DD
:101AB000D6028093D5028091CD02811113C010927D
:101AC000C8021092C70286E292E09093CA02809305
:101AD000C9028FE290E09093CC028093CB0281E028
:101AE0008093CD028091BF0281112AC0C1E0C093D2
:101AF000B202C093B30288EB92E09093B502809358
:101B0000B4021092B7021092B60285EF91E0909362
:101B1000AF028093AE021092BA021092B9021092F4
:101B2000BC021092BB02C093BD02C093BE0281EC06
:101B30008093B8020E94A1050E945601C093BF0283
:101B4000E091B902F091BA02309771F587EC92E01A
:101B50009093BA028093B9028091BB029091BC022B
:101B60002091CB023091CC02820F931F9093BC0244
:101B70008093BB0286EA91E09093E2028093E102B7
:101B800081E090E09093E4028093E3021092E602F9
:101B90001092E5020E9422038091E5029091E602F4
:101BA000CF910C942203FC01808191810097D9F799
:101BB00087EC92E091838083CFCF789484B5826064
:101BC00084BD84B5816084BD85B5826085BD85B5E1
:101BD000816085BD80916E00816080936E0010925F
:101BE00081008091810082608093810080918100DA
:101BF000816080938100809180008160809380006B
:101C00008091910082608093910080919100816029
:101C100080939100809190008160809390008091EA
:101C2000C10084608093C1008091C1008260809374
:101C3000C1008091C10081608093C1008091C30088
:101C400081608093C3008091C00082608093C00057
:101C50008091C20081608093C20080917A0084608C
:101C600080937A0080917A00826080937A008091DC
:101C70007A00816080937A0080917A0080688093F6
:101C80007A0010925A0210921D0210921C0280914A
:101C9000D70081608093D70080EA8093D80089B50F
:101CA000806189BD89B5826089BD09B400FEFDCF20
:101CB00061E070E080E090E00E9415048091D8001F
:101CC0008F7C80618093D8008091E000807F80933A
:101CD000E0008091E1008E7E8093E1008DE08093B2
:101CE000E200559A209A61E081E10E94E60261E0FB
:101CF00081E10E94B80261E08EE10E94E60261E0AB
:101D00008EE10E94B8028AEA0E943603892BD9F735
:101D10006AE070E080E090E00E941504C7E006EA07
:101D200011E0D1E080915B02811113C0C15089F0B4
:101D300064EF71E080E090E00E9415048091E30080
:101D400087FFF0CF1093E2020093E102D0935B0291
:101D5000E9CFC9EDD1E062E089910E94E60281E01D
:101D6000CF3DD807C1F761E087E00E94E60282E03C
:101D70000E948F02892B41F483E00E948F02019719
:101D800019F481E080934F0283E00E948F02892B37
:101D900041F482E00E948F02019719F482E080935F
:101DA0004F0284E00E948F02892B41F485E00E945B
:101DB0008F02019719F483E080934F02C3E7D1E0CB
:101DC00062E089910E94E60281E0C937D807C1F735
:101DD00061E083E10E94E6028AE00E948F02892B83
:101DE00041F480E10E948F02019719F481E0809311
:101DF000360280E10E948F02892B41F48AE00E9422
:101E00008F02019719F482E0809336028EE00E94DF
:101E10008F02892B41F48FE00E948F02019719F401
:101E200083E080933602C0E0D0E0AA24A394C0905F
:101E30004F0289E7E82E81E0F82E09EA11E027E356
:101E400032E043E452E067E089ED91E00E9444080B
:101E500092E0A92EC090360223E1E22E21E0F22E7C
:101E600003E411E02EE132E04AE252E063E183E76D
:101E700091E00E9444082097C1F20E940000D5CF53
:101E8000EE0FFF1F0590F491E02D0994F894FFCF19
:101E9000FFFFFFFF00E100000000000000C18081A3
:101EA00000000071616F706DB0B1CD7A797863DA3E
:101EB000D9D8D7B086B1CD7A79786DDAD9D8D7B0FC
:101EC00030B1C67A79786D3736353830B0B1CD7AE1
:101ED00079786D151C444D3A5A76051A35222175CC
:101EE000726B74115A76051A35223A75726B744505
:101EF0005A76031A35223A3D362E3E455A76051A51
:101F000035223A0A100E0F1214DAD9D8D7B086B19A
:101F1000CD7A79786D71616F706DB0B1CD7A797865
:101F200063DAD9D8D7B030B1C67A79786D3736351B
:101F30003830B0B1CD7A79786D75726B74115A768C
:101F4000051A35223A151C444D3A5A76051A35229F
:101F50002175726B74455A76031A35223A3D362E36
:101F60003E455A76051A35223A0203040506080052
:101F7000000000C6017E05DF04DC012902E701053F
:101F800002000000003906B20677065C0600000079
:0A1F900000FD07FD06140813080009
:00000001FF
